{
  "_format": "hh-sol-artifact-1",
  "contractName": "DeadmanSwitch",
  "sourceName": "contracts/DeadmanSwitch.sol",
  "abi": [
    {
      "inputs": [],
      "stateMutability": "nonpayable",
      "type": "constructor"
    },
    {
      "inputs": [
        {
          "internalType": "address",
          "name": "sender",
          "type": "address"
        },
        {
          "internalType": "uint256",
          "name": "tokenId",
          "type": "uint256"
        },
        {
          "internalType": "address",
          "name": "owner",
          "type": "address"
        }
      ],
      "name": "ERC721IncorrectOwner",
      "type": "error"
    },
    {
      "inputs": [
        {
          "internalType": "address",
          "name": "operator",
          "type": "address"
        },
        {
          "internalType": "uint256",
          "name": "tokenId",
          "type": "uint256"
        }
      ],
      "name": "ERC721InsufficientApproval",
      "type": "error"
    },
    {
      "inputs": [
        {
          "internalType": "address",
          "name": "approver",
          "type": "address"
        }
      ],
      "name": "ERC721InvalidApprover",
      "type": "error"
    },
    {
      "inputs": [
        {
          "internalType": "address",
          "name": "operator",
          "type": "address"
        }
      ],
      "name": "ERC721InvalidOperator",
      "type": "error"
    },
    {
      "inputs": [
        {
          "internalType": "address",
          "name": "owner",
          "type": "address"
        }
      ],
      "name": "ERC721InvalidOwner",
      "type": "error"
    },
    {
      "inputs": [
        {
          "internalType": "address",
          "name": "receiver",
          "type": "address"
        }
      ],
      "name": "ERC721InvalidReceiver",
      "type": "error"
    },
    {
      "inputs": [
        {
          "internalType": "address",
          "name": "sender",
          "type": "address"
        }
      ],
      "name": "ERC721InvalidSender",
      "type": "error"
    },
    {
      "inputs": [
        {
          "internalType": "uint256",
          "name": "tokenId",
          "type": "uint256"
        }
      ],
      "name": "ERC721NonexistentToken",
      "type": "error"
    },
    {
      "inputs": [
        {
          "internalType": "address",
          "name": "owner",
          "type": "address"
        }
      ],
      "name": "OwnableInvalidOwner",
      "type": "error"
    },
    {
      "inputs": [
        {
          "internalType": "address",
          "name": "account",
          "type": "address"
        }
      ],
      "name": "OwnableUnauthorizedAccount",
      "type": "error"
    },
    {
      "anonymous": false,
      "inputs": [
        {
          "indexed": true,
          "internalType": "address",
          "name": "owner",
          "type": "address"
        },
        {
          "indexed": true,
          "internalType": "address",
          "name": "approved",
          "type": "address"
        },
        {
          "indexed": true,
          "internalType": "uint256",
          "name": "tokenId",
          "type": "uint256"
        }
      ],
      "name": "Approval",
      "type": "event"
    },
    {
      "anonymous": false,
      "inputs": [
        {
          "indexed": true,
          "internalType": "address",
          "name": "owner",
          "type": "address"
        },
        {
          "indexed": true,
          "internalType": "address",
          "name": "operator",
          "type": "address"
        },
        {
          "indexed": false,
          "internalType": "bool",
          "name": "approved",
          "type": "bool"
        }
      ],
      "name": "ApprovalForAll",
      "type": "event"
    },
    {
      "anonymous": false,
      "inputs": [
        {
          "indexed": true,
          "internalType": "address",
          "name": "previousOwner",
          "type": "address"
        },
        {
          "indexed": true,
          "internalType": "address",
          "name": "newOwner",
          "type": "address"
        }
      ],
      "name": "OwnershipTransferred",
      "type": "event"
    },
    {
      "anonymous": false,
      "inputs": [
        {
          "indexed": true,
          "internalType": "address",
          "name": "from",
          "type": "address"
        },
        {
          "indexed": true,
          "internalType": "address",
          "name": "to",
          "type": "address"
        },
        {
          "indexed": true,
          "internalType": "uint256",
          "name": "tokenId",
          "type": "uint256"
        }
      ],
      "name": "Transfer",
      "type": "event"
    },
    {
      "inputs": [],
      "name": "DEFAULT_TIMEOUT",
      "outputs": [
        {
          "internalType": "uint256",
          "name": "",
          "type": "uint256"
        }
      ],
      "stateMutability": "view",
      "type": "function"
    },
    {
      "inputs": [
        {
          "internalType": "uint256",
          "name": "tokenId",
          "type": "uint256"
        },
        {
          "internalType": "address",
          "name": "user",
          "type": "address"
        }
      ],
      "name": "addToWhitelist",
      "outputs": [],
      "stateMutability": "nonpayable",
      "type": "function"
    },
    {
      "inputs": [
        {
          "internalType": "address",
          "name": "to",
          "type": "address"
        },
        {
          "internalType": "uint256",
          "name": "tokenId",
          "type": "uint256"
        }
      ],
      "name": "approve",
      "outputs": [],
      "stateMutability": "nonpayable",
      "type": "function"
    },
    {
      "inputs": [
        {
          "internalType": "address",
          "name": "owner",
          "type": "address"
        }
      ],
      "name": "balanceOf",
      "outputs": [
        {
          "internalType": "uint256",
          "name": "",
          "type": "uint256"
        }
      ],
      "stateMutability": "view",
      "type": "function"
    },
    {
      "inputs": [
        {
          "internalType": "uint256",
          "name": "tokenId",
          "type": "uint256"
        }
      ],
      "name": "getApproved",
      "outputs": [
        {
          "internalType": "address",
          "name": "",
          "type": "address"
        }
      ],
      "stateMutability": "view",
      "type": "function"
    },
    {
      "inputs": [
        {
          "internalType": "uint256",
          "name": "tokenId",
          "type": "uint256"
        }
      ],
      "name": "getLinksArray",
      "outputs": [
        {
          "internalType": "string[]",
          "name": "",
          "type": "string[]"
        }
      ],
      "stateMutability": "view",
      "type": "function"
    },
    {
      "inputs": [
        {
          "internalType": "uint256",
          "name": "tokenId",
          "type": "uint256"
        }
      ],
      "name": "getTimeout",
      "outputs": [
        {
          "internalType": "uint256",
          "name": "",
          "type": "uint256"
        }
      ],
      "stateMutability": "view",
      "type": "function"
    },
    {
      "inputs": [
        {
          "internalType": "address",
          "name": "owner",
          "type": "address"
        },
        {
          "internalType": "address",
          "name": "operator",
          "type": "address"
        }
      ],
      "name": "isApprovedForAll",
      "outputs": [
        {
          "internalType": "bool",
          "name": "",
          "type": "bool"
        }
      ],
      "stateMutability": "view",
      "type": "function"
    },
    {
      "inputs": [
        {
          "internalType": "uint256",
          "name": "_tokenId",
          "type": "uint256"
        }
      ],
      "name": "isPublic",
      "outputs": [
        {
          "internalType": "bool",
          "name": "",
          "type": "bool"
        }
      ],
      "stateMutability": "view",
      "type": "function"
    },
    {
      "inputs": [
        {
          "internalType": "uint256",
          "name": "tokenId",
          "type": "uint256"
        },
        {
          "internalType": "address",
          "name": "user",
          "type": "address"
        }
      ],
      "name": "isWhitelisted",
      "outputs": [
        {
          "internalType": "bool",
          "name": "",
          "type": "bool"
        }
      ],
      "stateMutability": "view",
      "type": "function"
    },
    {
      "inputs": [
        {
          "internalType": "uint256",
          "name": "",
          "type": "uint256"
        }
      ],
      "name": "lastCheckedIn",
      "outputs": [
        {
          "internalType": "uint256",
          "name": "",
          "type": "uint256"
        }
      ],
      "stateMutability": "view",
      "type": "function"
    },
    {
      "inputs": [],
      "name": "mint",
      "outputs": [],
      "stateMutability": "payable",
      "type": "function"
    },
    {
      "inputs": [],
      "name": "mintFee",
      "outputs": [
        {
          "internalType": "uint256",
          "name": "",
          "type": "uint256"
        }
      ],
      "stateMutability": "view",
      "type": "function"
    },
    {
      "inputs": [],
      "name": "name",
      "outputs": [
        {
          "internalType": "string",
          "name": "",
          "type": "string"
        }
      ],
      "stateMutability": "view",
      "type": "function"
    },
    {
      "inputs": [
        {
          "internalType": "uint256",
          "name": "",
          "type": "uint256"
        }
      ],
      "name": "nftInfos",
      "outputs": [
        {
          "internalType": "enum DeadmanSwitch.AccessLevel",
          "name": "access",
          "type": "uint8"
        }
      ],
      "stateMutability": "view",
      "type": "function"
    },
    {
      "inputs": [],
      "name": "owner",
      "outputs": [
        {
          "internalType": "address",
          "name": "",
          "type": "address"
        }
      ],
      "stateMutability": "view",
      "type": "function"
    },
    {
      "inputs": [
        {
          "internalType": "uint256",
          "name": "tokenId",
          "type": "uint256"
        }
      ],
      "name": "ownerOf",
      "outputs": [
        {
          "internalType": "address",
          "name": "",
          "type": "address"
        }
      ],
      "stateMutability": "view",
      "type": "function"
    },
    {
      "inputs": [
        {
          "internalType": "uint256",
          "name": "tokenId",
          "type": "uint256"
        },
        {
          "internalType": "string",
          "name": "link",
          "type": "string"
        }
      ],
      "name": "pushLink",
      "outputs": [],
      "stateMutability": "nonpayable",
      "type": "function"
    },
    {
      "inputs": [],
      "name": "renounceOwnership",
      "outputs": [],
      "stateMutability": "nonpayable",
      "type": "function"
    },
    {
      "inputs": [
        {
          "internalType": "address",
          "name": "from",
          "type": "address"
        },
        {
          "internalType": "address",
          "name": "to",
          "type": "address"
        },
        {
          "internalType": "uint256",
          "name": "tokenId",
          "type": "uint256"
        }
      ],
      "name": "safeTransferFrom",
      "outputs": [],
      "stateMutability": "nonpayable",
      "type": "function"
    },
    {
      "inputs": [
        {
          "internalType": "address",
          "name": "from",
          "type": "address"
        },
        {
          "internalType": "address",
          "name": "to",
          "type": "address"
        },
        {
          "internalType": "uint256",
          "name": "tokenId",
          "type": "uint256"
        },
        {
          "internalType": "bytes",
          "name": "data",
          "type": "bytes"
        }
      ],
      "name": "safeTransferFrom",
      "outputs": [],
      "stateMutability": "nonpayable",
      "type": "function"
    },
    {
      "inputs": [
        {
          "internalType": "uint256",
          "name": "tokenId",
          "type": "uint256"
        },
        {
          "internalType": "enum DeadmanSwitch.AccessLevel",
          "name": "access",
          "type": "uint8"
        }
      ],
      "name": "setAccess",
      "outputs": [],
      "stateMutability": "nonpayable",
      "type": "function"
    },
    {
      "inputs": [
        {
          "internalType": "address",
          "name": "operator",
          "type": "address"
        },
        {
          "internalType": "bool",
          "name": "approved",
          "type": "bool"
        }
      ],
      "name": "setApprovalForAll",
      "outputs": [],
      "stateMutability": "nonpayable",
      "type": "function"
    },
    {
      "inputs": [
        {
          "internalType": "uint256",
          "name": "tokenId",
          "type": "uint256"
        },
        {
          "internalType": "uint256",
          "name": "timeoutInSeconds",
          "type": "uint256"
        }
      ],
      "name": "setCustomTimeout",
      "outputs": [],
      "stateMutability": "nonpayable",
      "type": "function"
    },
    {
      "inputs": [
        {
          "internalType": "bytes4",
          "name": "interfaceId",
          "type": "bytes4"
        }
      ],
      "name": "supportsInterface",
      "outputs": [
        {
          "internalType": "bool",
          "name": "",
          "type": "bool"
        }
      ],
      "stateMutability": "view",
      "type": "function"
    },
    {
      "inputs": [],
      "name": "symbol",
      "outputs": [
        {
          "internalType": "string",
          "name": "",
          "type": "string"
        }
      ],
      "stateMutability": "view",
      "type": "function"
    },
    {
      "inputs": [],
      "name": "tokenCounter",
      "outputs": [
        {
          "internalType": "uint256",
          "name": "",
          "type": "uint256"
        }
      ],
      "stateMutability": "view",
      "type": "function"
    },
    {
      "inputs": [
        {
          "internalType": "uint256",
          "name": "",
          "type": "uint256"
        }
      ],
      "name": "tokenTimeout",
      "outputs": [
        {
          "internalType": "uint256",
          "name": "",
          "type": "uint256"
        }
      ],
      "stateMutability": "view",
      "type": "function"
    },
    {
      "inputs": [
        {
          "internalType": "uint256",
          "name": "tokenId",
          "type": "uint256"
        }
      ],
      "name": "tokenURI",
      "outputs": [
        {
          "internalType": "string",
          "name": "",
          "type": "string"
        }
      ],
      "stateMutability": "view",
      "type": "function"
    },
    {
      "inputs": [
        {
          "internalType": "address",
          "name": "from",
          "type": "address"
        },
        {
          "internalType": "address",
          "name": "to",
          "type": "address"
        },
        {
          "internalType": "uint256",
          "name": "tokenId",
          "type": "uint256"
        }
      ],
      "name": "transferFrom",
      "outputs": [],
      "stateMutability": "nonpayable",
      "type": "function"
    },
    {
      "inputs": [
        {
          "internalType": "address",
          "name": "newOwner",
          "type": "address"
        }
      ],
      "name": "transferOwnership",
      "outputs": [],
      "stateMutability": "nonpayable",
      "type": "function"
    },
    {
      "inputs": [
        {
          "internalType": "uint256",
          "name": "tokenId",
          "type": "uint256"
        }
      ],
      "name": "viewLinks",
      "outputs": [
        {
          "internalType": "string[]",
          "name": "",
          "type": "string[]"
        }
      ],
      "stateMutability": "view",
      "type": "function"
    },
    {
      "inputs": [],
      "name": "withdraw",
      "outputs": [],
      "stateMutability": "nonpayable",
      "type": "function"
    }
  ],
  "bytecode": "0x60806040526001600755662386f26fc100006008553480156200002157600080fd5b50336040518060400160405280600e81526020017f446561644d616e735377697463680000000000000000000000000000000000008152506040518060400160405280600381526020017f444d5300000000000000000000000000000000000000000000000000000000008152508160009081620000a0919062000482565b508060019081620000b2919062000482565b505050600073ffffffffffffffffffffffffffffffffffffffff168173ffffffffffffffffffffffffffffffffffffffff16036200012a5760006040517f1e4fbdf7000000000000000000000000000000000000000000000000000000008152600401620001219190620005ae565b60405180910390fd5b6200013b816200014260201b60201c565b50620005cb565b6000600660009054906101000a900473ffffffffffffffffffffffffffffffffffffffff16905081600660006101000a81548173ffffffffffffffffffffffffffffffffffffffff021916908373ffffffffffffffffffffffffffffffffffffffff1602179055508173ffffffffffffffffffffffffffffffffffffffff168173ffffffffffffffffffffffffffffffffffffffff167f8be0079c531659141344cd1fd0a4f28419497f9722a3daafe3b4186f6b6457e060405160405180910390a35050565b600081519050919050565b7f4e487b7100000000000000000000000000000000000000000000000000000000600052604160045260246000fd5b7f4e487b7100000000000000000000000000000000000000000000000000000000600052602260045260246000fd5b600060028204905060018216806200028a57607f821691505b602082108103620002a0576200029f62000242565b5b50919050565b60008190508160005260206000209050919050565b60006020601f8301049050919050565b600082821b905092915050565b6000600883026200030a7fffffffffffffffffffffffffffffffffffffffffffffffffffffffffffffffff82620002cb565b620003168683620002cb565b95508019841693508086168417925050509392505050565b6000819050919050565b6000819050919050565b6000620003636200035d62000357846200032e565b62000338565b6200032e565b9050919050565b6000819050919050565b6200037f8362000342565b620003976200038e826200036a565b848454620002d8565b825550505050565b600090565b620003ae6200039f565b620003bb81848462000374565b505050565b5b81811015620003e357620003d7600082620003a4565b600181019050620003c1565b5050565b601f8211156200043257620003fc81620002a6565b6200040784620002bb565b8101602085101562000417578190505b6200042f6200042685620002bb565b830182620003c0565b50505b505050565b600082821c905092915050565b6000620004576000198460080262000437565b1980831691505092915050565b600062000472838362000444565b9150826002028217905092915050565b6200048d8262000208565b67ffffffffffffffff811115620004a957620004a862000213565b5b620004b5825462000271565b620004c2828285620003e7565b600060209050601f831160018114620004fa5760008415620004e5578287015190505b620004f1858262000464565b86555062000561565b601f1984166200050a86620002a6565b60005b8281101562000534578489015182556001820191506020850194506020810190506200050d565b8683101562000554578489015162000550601f89168262000444565b8355505b6001600288020188555050505b505050505050565b600073ffffffffffffffffffffffffffffffffffffffff82169050919050565b6000620005968262000569565b9050919050565b620005a88162000589565b82525050565b6000602082019050620005c560008301846200059d565b92915050565b6140f780620005db6000396000f3fe6080604052600436106101ee5760003560e01c8063715018a61161010d578063b88d4fde116100a0578063db7569e31161006f578063db7569e314610728578063db7b961014610751578063e985e9c51461078e578063ed2b785f146107cb578063f2fde38b146107f4576101ee565b8063b88d4fde1461065a578063c405f5b814610683578063c87b56dd146106c0578063d082e381146106fd576101ee565b80638da5cb5b116100dc5780638da5cb5b146105b057806395d89b41146105db5780639add92e414610606578063a22cb46514610631576101ee565b8063715018a6146104e25780637d22c35c146104f95780638389f5d5146105365780638889cba214610573576101ee565b80633c17342411610185578063563a850211610154578063563a8502146104025780635b2dfeb81461042b5780636352211e1461046857806370a08231146104a5576101ee565b80633c173424146103485780633ccfd60b1461038557806342842e0e1461039c5780634bc834eb146103c5576101ee565b80631249c58b116101c15780631249c58b146102c157806313966db5146102cb57806323b872dd146102f65780632d7854611461031f576101ee565b806301ffc9a7146101f357806306fdde0314610230578063081812fc1461025b578063095ea7b314610298575b600080fd5b3480156101ff57600080fd5b5061021a60048036038101906102159190612d0b565b61081d565b6040516102279190612d53565b60405180910390f35b34801561023c57600080fd5b506102456108ff565b6040516102529190612dfe565b60405180910390f35b34801561026757600080fd5b50610282600480360381019061027d9190612e56565b610991565b60405161028f9190612ec4565b60405180910390f35b3480156102a457600080fd5b506102bf60048036038101906102ba9190612f0b565b6109ad565b005b6102c96109c3565b005b3480156102d757600080fd5b506102e0610af6565b6040516102ed9190612f5a565b60405180910390f35b34801561030257600080fd5b5061031d60048036038101906103189190612f75565b610afc565b005b34801561032b57600080fd5b5061034660048036038101906103419190612fc8565b610bfe565b005b34801561035457600080fd5b5061036f600480360381019061036a9190612e56565b610d34565b60405161037c9190612f5a565b60405180910390f35b34801561039157600080fd5b5061039a610d4c565b005b3480156103a857600080fd5b506103c360048036038101906103be9190612f75565b610e09565b005b3480156103d157600080fd5b506103ec60048036038101906103e79190612e56565b610e29565b6040516103f9919061307f565b60405180910390f35b34801561040e57600080fd5b506104296004803603810190610424919061309a565b610e54565b005b34801561043757600080fd5b50610452600480360381019061044d9190612e56565b610ee6565b60405161045f9190612d53565b60405180910390f35b34801561047457600080fd5b5061048f600480360381019061048a9190612e56565b610f88565b60405161049c9190612ec4565b60405180910390f35b3480156104b157600080fd5b506104cc60048036038101906104c791906130da565b610f9a565b6040516104d99190612f5a565b60405180910390f35b3480156104ee57600080fd5b506104f7611054565b005b34801561050557600080fd5b50610520600480360381019061051b9190612fc8565b611068565b60405161052d9190612d53565b60405180910390f35b34801561054257600080fd5b5061055d60048036038101906105589190612e56565b61118c565b60405161056a9190613213565b60405180910390f35b34801561057f57600080fd5b5061059a60048036038101906105959190612e56565b6112c6565b6040516105a79190612f5a565b60405180910390f35b3480156105bc57600080fd5b506105c5611309565b6040516105d29190612ec4565b60405180910390f35b3480156105e757600080fd5b506105f0611333565b6040516105fd9190612dfe565b60405180910390f35b34801561061257600080fd5b5061061b6113c5565b6040516106289190612f5a565b60405180910390f35b34801561063d57600080fd5b5061065860048036038101906106539190613261565b6113cc565b005b34801561066657600080fd5b50610681600480360381019061067c91906133d6565b6113e2565b005b34801561068f57600080fd5b506106aa60048036038101906106a59190612e56565b6113ff565b6040516106b79190612f5a565b60405180910390f35b3480156106cc57600080fd5b506106e760048036038101906106e29190612e56565b611417565b6040516106f49190612dfe565b60405180910390f35b34801561070957600080fd5b50610712611480565b60405161071f9190612f5a565b60405180910390f35b34801561073457600080fd5b5061074f600480360381019061074a919061347e565b611486565b005b34801561075d57600080fd5b5061077860048036038101906107739190612e56565b611583565b6040516107859190613213565b60405180910390f35b34801561079a57600080fd5b506107b560048036038101906107b091906134be565b611b0f565b6040516107c29190612d53565b60405180910390f35b3480156107d757600080fd5b506107f260048036038101906107ed919061359f565b611ba3565b005b34801561080057600080fd5b5061081b600480360381019061081691906130da565b611cb1565b005b60007f80ac58cd000000000000000000000000000000000000000000000000000000007bffffffffffffffffffffffffffffffffffffffffffffffffffffffff1916827bffffffffffffffffffffffffffffffffffffffffffffffffffffffff191614806108e857507f5b5e139f000000000000000000000000000000000000000000000000000000007bffffffffffffffffffffffffffffffffffffffffffffffffffffffff1916827bffffffffffffffffffffffffffffffffffffffffffffffffffffffff1916145b806108f857506108f782611d37565b5b9050919050565b60606000805461090e9061362a565b80601f016020809104026020016040519081016040528092919081815260200182805461093a9061362a565b80156109875780601f1061095c57610100808354040283529160200191610987565b820191906000526020600020905b81548152906001019060200180831161096a57829003601f168201915b5050505050905090565b600061099c82611da1565b506109a682611e29565b9050919050565b6109bf82826109ba611e66565b611e6e565b5050565b600854341015610a08576040517f08c379a00000000000000000000000000000000000000000000000000000000081526004016109ff906136a7565b60405180910390fd5b610a1433600754611e80565b6000600960006007548152602001908152602001600020905060008160010160006101000a81548160ff02191690836002811115610a5557610a54613008565b5b0217905550600067ffffffffffffffff811115610a7557610a746132ab565b5b604051908082528060200260200182016040528015610aa857816020015b6060815260200190600190039081610a935790505b50816000019080519060200190610ac0929190612bc5565b5042600a600060075481526020019081526020016000208190555060076000815480929190610aee906136f6565b919050555050565b60085481565b600073ffffffffffffffffffffffffffffffffffffffff168273ffffffffffffffffffffffffffffffffffffffff1603610b6e5760006040517f64a0ae92000000000000000000000000000000000000000000000000000000008152600401610b659190612ec4565b60405180910390fd5b6000610b828383610b7d611e66565b611f79565b90508373ffffffffffffffffffffffffffffffffffffffff168173ffffffffffffffffffffffffffffffffffffffff1614610bf8578382826040517f64283d7b000000000000000000000000000000000000000000000000000000008152600401610bef9392919061373e565b60405180910390fd5b50505050565b600754821115610c43576040517f08c379a0000000000000000000000000000000000000000000000000000000008152600401610c3a906137c1565b60405180910390fd5b610c4c82610f88565b73ffffffffffffffffffffffffffffffffffffffff163373ffffffffffffffffffffffffffffffffffffffff1614610cb9576040517f08c379a0000000000000000000000000000000000000000000000000000000008152600401610cb090613853565b60405180910390fd5b60096000838152602001908152602001600020600201819080600181540180825580915050600190039060005260206000200160009091909190916101000a81548173ffffffffffffffffffffffffffffffffffffffff021916908373ffffffffffffffffffffffffffffffffffffffff1602179055505050565b600b6020528060005260406000206000915090505481565b610d54612193565b600047905060003373ffffffffffffffffffffffffffffffffffffffff1682604051610d7f906138a4565b60006040518083038185875af1925050503d8060008114610dbc576040519150601f19603f3d011682016040523d82523d6000602084013e610dc1565b606091505b5050905080610e05576040517f08c379a0000000000000000000000000000000000000000000000000000000008152600401610dfc90613905565b60405180910390fd5b5050565b610e24838383604051806020016040528060008152506113e2565b505050565b60096020528060005260406000206000915090508060010160009054906101000a900460ff16905081565b3373ffffffffffffffffffffffffffffffffffffffff16610e7483610f88565b73ffffffffffffffffffffffffffffffffffffffff1614610eca576040517f08c379a0000000000000000000000000000000000000000000000000000000008152600401610ec190613997565b60405180910390fd5b80600b6000848152602001908152602001600020819055505050565b600080610ef2836112c6565b90504281600a600086815260200190815260200160002054610f1491906139b7565b1015610f24576001915050610f83565b60016002811115610f3857610f37613008565b5b6009600085815260200190815260200160002060010160009054906101000a900460ff166002811115610f6e57610f6d613008565b5b03610f7d576001915050610f83565b60009150505b919050565b6000610f9382611da1565b9050919050565b60008073ffffffffffffffffffffffffffffffffffffffff168273ffffffffffffffffffffffffffffffffffffffff160361100d5760006040517f89c62b640000000000000000000000000000000000000000000000000000000081526004016110049190612ec4565b60405180910390fd5b600360008373ffffffffffffffffffffffffffffffffffffffff1673ffffffffffffffffffffffffffffffffffffffff168152602001908152602001600020549050919050565b61105c612193565b611066600061221a565b565b6000806009600085815260200190815260200160002060020180548060200260200160405190810160405280929190818152602001828054801561110157602002820191906000526020600020905b8160009054906101000a900473ffffffffffffffffffffffffffffffffffffffff1673ffffffffffffffffffffffffffffffffffffffff16815260200190600101908083116110b7575b5050505050905060005b815181101561117f578373ffffffffffffffffffffffffffffffffffffffff1682828151811061113e5761113d6139eb565b5b602002602001015173ffffffffffffffffffffffffffffffffffffffff160361116c57600192505050611186565b8080611177906136f6565b91505061110b565b5060009150505b92915050565b60606007548211156111d3576040517f08c379a00000000000000000000000000000000000000000000000000000000081526004016111ca906137c1565b60405180910390fd5b600060096000848152602001908152602001600020905080600001805480602002602001604051908101604052809291908181526020016000905b828210156112ba57838290600052602060002001805461122d9061362a565b80601f01602080910402602001604051908101604052809291908181526020018280546112599061362a565b80156112a65780601f1061127b576101008083540402835291602001916112a6565b820191906000526020600020905b81548152906001019060200180831161128957829003601f168201915b50505050508152602001906001019061120e565b50505050915050919050565b600080600b600084815260200190815260200160002054036112ed5762278d009050611304565b600b60008381526020019081526020016000205490505b919050565b6000600660009054906101000a900473ffffffffffffffffffffffffffffffffffffffff16905090565b6060600180546113429061362a565b80601f016020809104026020016040519081016040528092919081815260200182805461136e9061362a565b80156113bb5780601f10611390576101008083540402835291602001916113bb565b820191906000526020600020905b81548152906001019060200180831161139e57829003601f168201915b5050505050905090565b62278d0081565b6113de6113d7611e66565b83836122e0565b5050565b6113ed848484610afc565b6113f98484848461244f565b50505050565b600a6020528060005260406000206000915090505481565b606061142282611da1565b50600061142d612606565b9050600081511161144d5760405180602001604052806000815250611478565b806114578461261d565b604051602001611468929190613a56565b6040516020818303038152906040525b915050919050565b60075481565b6007548211156114cb576040517f08c379a00000000000000000000000000000000000000000000000000000000081526004016114c2906137c1565b60405180910390fd5b6114d482610f88565b73ffffffffffffffffffffffffffffffffffffffff163373ffffffffffffffffffffffffffffffffffffffff1614611541576040517f08c379a000000000000000000000000000000000000000000000000000000000815260040161153890613ac6565b60405180910390fd5b806009600084815260200190815260200160002060010160006101000a81548160ff0219169083600281111561157a57611579613008565b5b02179055505050565b60606007548211156115ca576040517f08c379a00000000000000000000000000000000000000000000000000000000081526004016115c1906137c1565b60405180910390fd5b60006115d533610f9a565b11611615576040517f08c379a000000000000000000000000000000000000000000000000000000000815260040161160c90613b58565b60405180910390fd5b6001600281111561162957611628613008565b5b6009600084815260200190815260200160002060010160009054906101000a900460ff16600281111561165f5761165e613008565b5b1480611690575061166f826112c6565b600a60008481526020019081526020016000205461168d91906139b7565b42115b156117825760096000838152602001908152602001600020600001805480602002602001604051908101604052809291908181526020016000905b828210156117775783829060005260206000200180546116ea9061362a565b80601f01602080910402602001604051908101604052809291908181526020018280546117169061362a565b80156117635780601f1061173857610100808354040283529160200191611763565b820191906000526020600020905b81548152906001019060200180831161174657829003601f168201915b5050505050815260200190600101906116cb565b505050509050611b0a565b6000600281111561179657611795613008565b5b6009600084815260200190815260200160002060010160009054906101000a900460ff1660028111156117cc576117cb613008565b5b03611934576117da82610f88565b73ffffffffffffffffffffffffffffffffffffffff163373ffffffffffffffffffffffffffffffffffffffff1614611847576040517f08c379a000000000000000000000000000000000000000000000000000000000815260040161183e90613bea565b60405180910390fd5b60096000838152602001908152602001600020600001805480602002602001604051908101604052809291908181526020016000905b8282101561192957838290600052602060002001805461189c9061362a565b80601f01602080910402602001604051908101604052809291908181526020018280546118c89061362a565b80156119155780601f106118ea57610100808354040283529160200191611915565b820191906000526020600020905b8154815290600101906020018083116118f857829003601f168201915b50505050508152602001906001019061187d565b505050509050611b0a565b60028081111561194757611946613008565b5b6009600084815260200190815260200160002060010160009054906101000a900460ff16600281111561197d5761197c613008565b5b03611ab85761198c8233611068565b6119cb576040517f08c379a00000000000000000000000000000000000000000000000000000000081526004016119c290613c7c565b60405180910390fd5b60096000838152602001908152602001600020600001805480602002602001604051908101604052809291908181526020016000905b82821015611aad578382906000526020600020018054611a209061362a565b80601f0160208091040260200160405190810160405280929190818152602001828054611a4c9061362a565b8015611a995780601f10611a6e57610100808354040283529160200191611a99565b820191906000526020600020905b815481529060010190602001808311611a7c57829003601f168201915b505050505081526020019060010190611a01565b505050509050611b0a565b600067ffffffffffffffff811115611ad357611ad26132ab565b5b604051908082528060200260200182016040528015611b0657816020015b6060815260200190600190039081611af15790505b5090505b919050565b6000600560008473ffffffffffffffffffffffffffffffffffffffff1673ffffffffffffffffffffffffffffffffffffffff16815260200190815260200160002060008373ffffffffffffffffffffffffffffffffffffffff1673ffffffffffffffffffffffffffffffffffffffff16815260200190815260200160002060009054906101000a900460ff16905092915050565b6000600960008481526020019081526020016000209050600754831115611bff576040517f08c379a0000000000000000000000000000000000000000000000000000000008152600401611bf6906137c1565b60405180910390fd5b611c0883610f88565b73ffffffffffffffffffffffffffffffffffffffff163373ffffffffffffffffffffffffffffffffffffffff1614611c75576040517f08c379a0000000000000000000000000000000000000000000000000000000008152600401611c6c90613ce8565b60405180910390fd5b8060000182908060018154018082558091505060019003906000526020600020016000909190919091509081611cab9190613eb4565b50505050565b611cb9612193565b600073ffffffffffffffffffffffffffffffffffffffff168173ffffffffffffffffffffffffffffffffffffffff1603611d2b5760006040517f1e4fbdf7000000000000000000000000000000000000000000000000000000008152600401611d229190612ec4565b60405180910390fd5b611d348161221a565b50565b60007f01ffc9a7000000000000000000000000000000000000000000000000000000007bffffffffffffffffffffffffffffffffffffffffffffffffffffffff1916827bffffffffffffffffffffffffffffffffffffffffffffffffffffffff1916149050919050565b600080611dad836126eb565b9050600073ffffffffffffffffffffffffffffffffffffffff168173ffffffffffffffffffffffffffffffffffffffff1603611e2057826040517f7e273289000000000000000000000000000000000000000000000000000000008152600401611e179190612f5a565b60405180910390fd5b80915050919050565b60006004600083815260200190815260200160002060009054906101000a900473ffffffffffffffffffffffffffffffffffffffff169050919050565b600033905090565b611e7b8383836001612728565b505050565b600073ffffffffffffffffffffffffffffffffffffffff168273ffffffffffffffffffffffffffffffffffffffff1603611ef25760006040517f64a0ae92000000000000000000000000000000000000000000000000000000008152600401611ee99190612ec4565b60405180910390fd5b6000611f0083836000611f79565b9050600073ffffffffffffffffffffffffffffffffffffffff168173ffffffffffffffffffffffffffffffffffffffff1614611f745760006040517f73c6ac6e000000000000000000000000000000000000000000000000000000008152600401611f6b9190612ec4565b60405180910390fd5b505050565b600080611f85846126eb565b9050600073ffffffffffffffffffffffffffffffffffffffff168373ffffffffffffffffffffffffffffffffffffffff1614611fc757611fc68184866128ed565b5b600073ffffffffffffffffffffffffffffffffffffffff168173ffffffffffffffffffffffffffffffffffffffff161461205857612009600085600080612728565b6001600360008373ffffffffffffffffffffffffffffffffffffffff1673ffffffffffffffffffffffffffffffffffffffff168152602001908152602001600020600082825403925050819055505b600073ffffffffffffffffffffffffffffffffffffffff168573ffffffffffffffffffffffffffffffffffffffff16146120db576001600360008773ffffffffffffffffffffffffffffffffffffffff1673ffffffffffffffffffffffffffffffffffffffff168152602001908152602001600020600082825401925050819055505b846002600086815260200190815260200160002060006101000a81548173ffffffffffffffffffffffffffffffffffffffff021916908373ffffffffffffffffffffffffffffffffffffffff160217905550838573ffffffffffffffffffffffffffffffffffffffff168273ffffffffffffffffffffffffffffffffffffffff167fddf252ad1be2c89b69c2b068fc378daa952ba7f163c4a11628f55a4df523b3ef60405160405180910390a4809150509392505050565b61219b611e66565b73ffffffffffffffffffffffffffffffffffffffff166121b9611309565b73ffffffffffffffffffffffffffffffffffffffff1614612218576121dc611e66565b6040517f118cdaa700000000000000000000000000000000000000000000000000000000815260040161220f9190612ec4565b60405180910390fd5b565b6000600660009054906101000a900473ffffffffffffffffffffffffffffffffffffffff16905081600660006101000a81548173ffffffffffffffffffffffffffffffffffffffff021916908373ffffffffffffffffffffffffffffffffffffffff1602179055508173ffffffffffffffffffffffffffffffffffffffff168173ffffffffffffffffffffffffffffffffffffffff167f8be0079c531659141344cd1fd0a4f28419497f9722a3daafe3b4186f6b6457e060405160405180910390a35050565b600073ffffffffffffffffffffffffffffffffffffffff168273ffffffffffffffffffffffffffffffffffffffff160361235157816040517f5b08ba180000000000000000000000000000000000000000000000000000000081526004016123489190612ec4565b60405180910390fd5b80600560008573ffffffffffffffffffffffffffffffffffffffff1673ffffffffffffffffffffffffffffffffffffffff16815260200190815260200160002060008473ffffffffffffffffffffffffffffffffffffffff1673ffffffffffffffffffffffffffffffffffffffff16815260200190815260200160002060006101000a81548160ff0219169083151502179055508173ffffffffffffffffffffffffffffffffffffffff168373ffffffffffffffffffffffffffffffffffffffff167f17307eab39ab6107e8899845ad3d59bd9653f200f220920489ca2b5937696c31836040516124429190612d53565b60405180910390a3505050565b60008373ffffffffffffffffffffffffffffffffffffffff163b1115612600578273ffffffffffffffffffffffffffffffffffffffff1663150b7a02612493611e66565b8685856040518563ffffffff1660e01b81526004016124b59493929190613fdb565b6020604051808303816000875af19250505080156124f157506040513d601f19601f820116820180604052508101906124ee919061403c565b60015b612575573d8060008114612521576040519150601f19603f3d011682016040523d82523d6000602084013e612526565b606091505b50600081510361256d57836040517f64a0ae920000000000000000000000000000000000000000000000000000000081526004016125649190612ec4565b60405180910390fd5b805181602001fd5b63150b7a0260e01b7bffffffffffffffffffffffffffffffffffffffffffffffffffffffff1916817bffffffffffffffffffffffffffffffffffffffffffffffffffffffff1916146125fe57836040517f64a0ae920000000000000000000000000000000000000000000000000000000081526004016125f59190612ec4565b60405180910390fd5b505b50505050565b606060405180602001604052806000815250905090565b60606000600161262c846129b1565b01905060008167ffffffffffffffff81111561264b5761264a6132ab565b5b6040519080825280601f01601f19166020018201604052801561267d5781602001600182028036833780820191505090505b509050600082602001820190505b6001156126e0578080600190039150507f3031323334353637383961626364656600000000000000000000000000000000600a86061a8153600a85816126d4576126d3614069565b5b0494506000850361268b575b819350505050919050565b60006002600083815260200190815260200160002060009054906101000a900473ffffffffffffffffffffffffffffffffffffffff169050919050565b80806127615750600073ffffffffffffffffffffffffffffffffffffffff168273ffffffffffffffffffffffffffffffffffffffff1614155b1561289557600061277184611da1565b9050600073ffffffffffffffffffffffffffffffffffffffff168373ffffffffffffffffffffffffffffffffffffffff16141580156127dc57508273ffffffffffffffffffffffffffffffffffffffff168173ffffffffffffffffffffffffffffffffffffffff1614155b80156127ef57506127ed8184611b0f565b155b1561283157826040517fa9fbf51f0000000000000000000000000000000000000000000000000000000081526004016128289190612ec4565b60405180910390fd5b811561289357838573ffffffffffffffffffffffffffffffffffffffff168273ffffffffffffffffffffffffffffffffffffffff167f8c5be1e5ebec7d5bd14f71427d1e84f3dd0314c0f7b2291e5b200ac8c7c3b92560405160405180910390a45b505b836004600085815260200190815260200160002060006101000a81548173ffffffffffffffffffffffffffffffffffffffff021916908373ffffffffffffffffffffffffffffffffffffffff16021790555050505050565b6128f8838383612b04565b6129ac57600073ffffffffffffffffffffffffffffffffffffffff168373ffffffffffffffffffffffffffffffffffffffff160361296d57806040517f7e2732890000000000000000000000000000000000000000000000000000000081526004016129649190612f5a565b60405180910390fd5b81816040517f177e802f0000000000000000000000000000000000000000000000000000000081526004016129a3929190614098565b60405180910390fd5b505050565b600080600090507a184f03e93ff9f4daa797ed6e38ed64bf6a1f0100000000000000008310612a0f577a184f03e93ff9f4daa797ed6e38ed64bf6a1f0100000000000000008381612a0557612a04614069565b5b0492506040810190505b6d04ee2d6d415b85acef81000000008310612a4c576d04ee2d6d415b85acef81000000008381612a4257612a41614069565b5b0492506020810190505b662386f26fc100008310612a7b57662386f26fc100008381612a7157612a70614069565b5b0492506010810190505b6305f5e1008310612aa4576305f5e1008381612a9a57612a99614069565b5b0492506008810190505b6127108310612ac9576127108381612abf57612abe614069565b5b0492506004810190505b60648310612aec5760648381612ae257612ae1614069565b5b0492506002810190505b600a8310612afb576001810190505b80915050919050565b60008073ffffffffffffffffffffffffffffffffffffffff168373ffffffffffffffffffffffffffffffffffffffff1614158015612bbc57508273ffffffffffffffffffffffffffffffffffffffff168473ffffffffffffffffffffffffffffffffffffffff161480612b7d5750612b7c8484611b0f565b5b80612bbb57508273ffffffffffffffffffffffffffffffffffffffff16612ba383611e29565b73ffffffffffffffffffffffffffffffffffffffff16145b5b90509392505050565b828054828255906000526020600020908101928215612c0d579160200282015b82811115612c0c578251829081612bfc9190613eb4565b5091602001919060010190612be5565b5b509050612c1a9190612c1e565b5090565b5b80821115612c3e5760008181612c359190612c42565b50600101612c1f565b5090565b508054612c4e9061362a565b6000825580601f10612c605750612c7f565b601f016020900490600052602060002090810190612c7e9190612c82565b5b50565b5b80821115612c9b576000816000905550600101612c83565b5090565b6000604051905090565b600080fd5b600080fd5b60007fffffffff0000000000000000000000000000000000000000000000000000000082169050919050565b612ce881612cb3565b8114612cf357600080fd5b50565b600081359050612d0581612cdf565b92915050565b600060208284031215612d2157612d20612ca9565b5b6000612d2f84828501612cf6565b91505092915050565b60008115159050919050565b612d4d81612d38565b82525050565b6000602082019050612d686000830184612d44565b92915050565b600081519050919050565b600082825260208201905092915050565b60005b83811015612da8578082015181840152602081019050612d8d565b60008484015250505050565b6000601f19601f8301169050919050565b6000612dd082612d6e565b612dda8185612d79565b9350612dea818560208601612d8a565b612df381612db4565b840191505092915050565b60006020820190508181036000830152612e188184612dc5565b905092915050565b6000819050919050565b612e3381612e20565b8114612e3e57600080fd5b50565b600081359050612e5081612e2a565b92915050565b600060208284031215612e6c57612e6b612ca9565b5b6000612e7a84828501612e41565b91505092915050565b600073ffffffffffffffffffffffffffffffffffffffff82169050919050565b6000612eae82612e83565b9050919050565b612ebe81612ea3565b82525050565b6000602082019050612ed96000830184612eb5565b92915050565b612ee881612ea3565b8114612ef357600080fd5b50565b600081359050612f0581612edf565b92915050565b60008060408385031215612f2257612f21612ca9565b5b6000612f3085828601612ef6565b9250506020612f4185828601612e41565b9150509250929050565b612f5481612e20565b82525050565b6000602082019050612f6f6000830184612f4b565b92915050565b600080600060608486031215612f8e57612f8d612ca9565b5b6000612f9c86828701612ef6565b9350506020612fad86828701612ef6565b9250506040612fbe86828701612e41565b9150509250925092565b60008060408385031215612fdf57612fde612ca9565b5b6000612fed85828601612e41565b9250506020612ffe85828601612ef6565b9150509250929050565b7f4e487b7100000000000000000000000000000000000000000000000000000000600052602160045260246000fd5b6003811061304857613047613008565b5b50565b600081905061305982613037565b919050565b60006130698261304b565b9050919050565b6130798161305e565b82525050565b60006020820190506130946000830184613070565b92915050565b600080604083850312156130b1576130b0612ca9565b5b60006130bf85828601612e41565b92505060206130d085828601612e41565b9150509250929050565b6000602082840312156130f0576130ef612ca9565b5b60006130fe84828501612ef6565b91505092915050565b600081519050919050565b600082825260208201905092915050565b6000819050602082019050919050565b600082825260208201905092915050565b600061314f82612d6e565b6131598185613133565b9350613169818560208601612d8a565b61317281612db4565b840191505092915050565b60006131898383613144565b905092915050565b6000602082019050919050565b60006131a982613107565b6131b38185613112565b9350836020820285016131c585613123565b8060005b8581101561320157848403895281516131e2858261317d565b94506131ed83613191565b925060208a019950506001810190506131c9565b50829750879550505050505092915050565b6000602082019050818103600083015261322d818461319e565b905092915050565b61323e81612d38565b811461324957600080fd5b50565b60008135905061325b81613235565b92915050565b6000806040838503121561327857613277612ca9565b5b600061328685828601612ef6565b92505060206132978582860161324c565b9150509250929050565b600080fd5b600080fd5b7f4e487b7100000000000000000000000000000000000000000000000000000000600052604160045260246000fd5b6132e382612db4565b810181811067ffffffffffffffff82111715613302576133016132ab565b5b80604052505050565b6000613315612c9f565b905061332182826132da565b919050565b600067ffffffffffffffff821115613341576133406132ab565b5b61334a82612db4565b9050602081019050919050565b82818337600083830152505050565b600061337961337484613326565b61330b565b905082815260208101848484011115613395576133946132a6565b5b6133a0848285613357565b509392505050565b600082601f8301126133bd576133bc6132a1565b5b81356133cd848260208601613366565b91505092915050565b600080600080608085870312156133f0576133ef612ca9565b5b60006133fe87828801612ef6565b945050602061340f87828801612ef6565b935050604061342087828801612e41565b925050606085013567ffffffffffffffff81111561344157613440612cae565b5b61344d878288016133a8565b91505092959194509250565b6003811061346657600080fd5b50565b60008135905061347881613459565b92915050565b6000806040838503121561349557613494612ca9565b5b60006134a385828601612e41565b92505060206134b485828601613469565b9150509250929050565b600080604083850312156134d5576134d4612ca9565b5b60006134e385828601612ef6565b92505060206134f485828601612ef6565b9150509250929050565b600067ffffffffffffffff821115613519576135186132ab565b5b61352282612db4565b9050602081019050919050565b600061354261353d846134fe565b61330b565b90508281526020810184848401111561355e5761355d6132a6565b5b613569848285613357565b509392505050565b600082601f830112613586576135856132a1565b5b813561359684826020860161352f565b91505092915050565b600080604083850312156135b6576135b5612ca9565b5b60006135c485828601612e41565b925050602083013567ffffffffffffffff8111156135e5576135e4612cae565b5b6135f185828601613571565b9150509250929050565b7f4e487b7100000000000000000000000000000000000000000000000000000000600052602260045260246000fd5b6000600282049050600182168061364257607f821691505b602082108103613655576136546135fb565b5b50919050565b7f4e6f7420656e6f7567682045746865722070726f76696465642e000000000000600082015250565b6000613691601a83612d79565b915061369c8261365b565b602082019050919050565b600060208201905081810360008301526136c081613684565b9050919050565b7f4e487b7100000000000000000000000000000000000000000000000000000000600052601160045260246000fd5b600061370182612e20565b91507fffffffffffffffffffffffffffffffffffffffffffffffffffffffffffffffff8203613733576137326136c7565b5b600182019050919050565b60006060820190506137536000830186612eb5565b6137606020830185612f4b565b61376d6040830184612eb5565b949350505050565b7f4e465420646f6573206e6f742065786973740000000000000000000000000000600082015250565b60006137ab601283612d79565b91506137b682613775565b602082019050919050565b600060208201905081810360008301526137da8161379e565b9050919050565b7f4f6e6c7920746865206f776e65722063616e2061646420746f2074686520776860008201527f6974656c69737400000000000000000000000000000000000000000000000000602082015250565b600061383d602783612d79565b9150613848826137e1565b604082019050919050565b6000602082019050818103600083015261386c81613830565b9050919050565b600081905092915050565b50565b600061388e600083613873565b91506138998261387e565b600082019050919050565b60006138af82613881565b9150819050919050565b7f5472616e73666572206661696c65640000000000000000000000000000000000600082015250565b60006138ef600f83612d79565b91506138fa826138b9565b602082019050919050565b6000602082019050818103600083015261391e816138e2565b9050919050565b7f4f6e6c7920746865206f776e65722063616e20736574206120637573746f6d2060008201527f74696d656f757400000000000000000000000000000000000000000000000000602082015250565b6000613981602783612d79565b915061398c82613925565b604082019050919050565b600060208201905081810360008301526139b081613974565b9050919050565b60006139c282612e20565b91506139cd83612e20565b92508282019050808211156139e5576139e46136c7565b5b92915050565b7f4e487b7100000000000000000000000000000000000000000000000000000000600052603260045260246000fd5b600081905092915050565b6000613a3082612d6e565b613a3a8185613a1a565b9350613a4a818560208601612d8a565b80840191505092915050565b6000613a628285613a25565b9150613a6e8284613a25565b91508190509392505050565b7f4f6e6c7920746865206f776e65722063616e2073657420616363657373000000600082015250565b6000613ab0601d83612d79565b9150613abb82613a7a565b602082019050919050565b60006020820190508181036000830152613adf81613aa3565b9050919050565b7f4d75737420686f6c64206174206c656173742031204e465420746f207669657760008201527f206f7468657273206c696e6b7300000000000000000000000000000000000000602082015250565b6000613b42602d83612d79565b9150613b4d82613ae6565b604082019050919050565b60006020820190508181036000830152613b7181613b35565b9050919050565b7f4f6e6c7920746865206f776e65722063616e207669657720746865206c696e6b60008201527f7300000000000000000000000000000000000000000000000000000000000000602082015250565b6000613bd4602183612d79565b9150613bdf82613b78565b604082019050919050565b60006020820190508181036000830152613c0381613bc7565b9050919050565b7f596f7520617265206e6f742077686974656c697374656420746f20766965772060008201527f746865206c696e6b730000000000000000000000000000000000000000000000602082015250565b6000613c66602983612d79565b9150613c7182613c0a565b604082019050919050565b60006020820190508181036000830152613c9581613c59565b9050919050565b7f4f6e6c7920746865206f776e65722063616e20616464206c696e6b7300000000600082015250565b6000613cd2601c83612d79565b9150613cdd82613c9c565b602082019050919050565b60006020820190508181036000830152613d0181613cc5565b9050919050565b60008190508160005260206000209050919050565b60006020601f8301049050919050565b600082821b905092915050565b600060088302613d6a7fffffffffffffffffffffffffffffffffffffffffffffffffffffffffffffffff82613d2d565b613d748683613d2d565b95508019841693508086168417925050509392505050565b6000819050919050565b6000613db1613dac613da784612e20565b613d8c565b612e20565b9050919050565b6000819050919050565b613dcb83613d96565b613ddf613dd782613db8565b848454613d3a565b825550505050565b600090565b613df4613de7565b613dff818484613dc2565b505050565b5b81811015613e2357613e18600082613dec565b600181019050613e05565b5050565b601f821115613e6857613e3981613d08565b613e4284613d1d565b81016020851015613e51578190505b613e65613e5d85613d1d565b830182613e04565b50505b505050565b600082821c905092915050565b6000613e8b60001984600802613e6d565b1980831691505092915050565b6000613ea48383613e7a565b9150826002028217905092915050565b613ebd82612d6e565b67ffffffffffffffff811115613ed657613ed56132ab565b5b613ee0825461362a565b613eeb828285613e27565b600060209050601f831160018114613f1e5760008415613f0c578287015190505b613f168582613e98565b865550613f7e565b601f198416613f2c86613d08565b60005b82811015613f5457848901518255600182019150602085019450602081019050613f2f565b86831015613f715784890151613f6d601f891682613e7a565b8355505b6001600288020188555050505b505050505050565b600081519050919050565b600082825260208201905092915050565b6000613fad82613f86565b613fb78185613f91565b9350613fc7818560208601612d8a565b613fd081612db4565b840191505092915050565b6000608082019050613ff06000830187612eb5565b613ffd6020830186612eb5565b61400a6040830185612f4b565b818103606083015261401c8184613fa2565b905095945050505050565b60008151905061403681612cdf565b92915050565b60006020828403121561405257614051612ca9565b5b600061406084828501614027565b91505092915050565b7f4e487b7100000000000000000000000000000000000000000000000000000000600052601260045260246000fd5b60006040820190506140ad6000830185612eb5565b6140ba6020830184612f4b565b939250505056fea26469706673582212205f12beaf742c19dc0dd032c2631b187c50debd8cd9a809eea0bfe2fb476cc6ff64736f6c63430008140033",
  "linkReferences": {},
  "deployedLinkReferences": {}
}