{
  "_format": "hh-sol-artifact-1",
  "contractName": "DeadmanSwitch",
  "sourceName": "contracts/DeadmanSwitch.sol",
  "abi": [
    {
      "inputs": [],
      "stateMutability": "nonpayable",
      "type": "constructor"
    },
    {
      "inputs": [
        {
          "internalType": "address",
          "name": "sender",
          "type": "address"
        },
        {
          "internalType": "uint256",
          "name": "tokenId",
          "type": "uint256"
        },
        {
          "internalType": "address",
          "name": "owner",
          "type": "address"
        }
      ],
      "name": "ERC721IncorrectOwner",
      "type": "error"
    },
    {
      "inputs": [
        {
          "internalType": "address",
          "name": "operator",
          "type": "address"
        },
        {
          "internalType": "uint256",
          "name": "tokenId",
          "type": "uint256"
        }
      ],
      "name": "ERC721InsufficientApproval",
      "type": "error"
    },
    {
      "inputs": [
        {
          "internalType": "address",
          "name": "approver",
          "type": "address"
        }
      ],
      "name": "ERC721InvalidApprover",
      "type": "error"
    },
    {
      "inputs": [
        {
          "internalType": "address",
          "name": "operator",
          "type": "address"
        }
      ],
      "name": "ERC721InvalidOperator",
      "type": "error"
    },
    {
      "inputs": [
        {
          "internalType": "address",
          "name": "owner",
          "type": "address"
        }
      ],
      "name": "ERC721InvalidOwner",
      "type": "error"
    },
    {
      "inputs": [
        {
          "internalType": "address",
          "name": "receiver",
          "type": "address"
        }
      ],
      "name": "ERC721InvalidReceiver",
      "type": "error"
    },
    {
      "inputs": [
        {
          "internalType": "address",
          "name": "sender",
          "type": "address"
        }
      ],
      "name": "ERC721InvalidSender",
      "type": "error"
    },
    {
      "inputs": [
        {
          "internalType": "uint256",
          "name": "tokenId",
          "type": "uint256"
        }
      ],
      "name": "ERC721NonexistentToken",
      "type": "error"
    },
    {
      "inputs": [
        {
          "internalType": "address",
          "name": "owner",
          "type": "address"
        }
      ],
      "name": "OwnableInvalidOwner",
      "type": "error"
    },
    {
      "inputs": [
        {
          "internalType": "address",
          "name": "account",
          "type": "address"
        }
      ],
      "name": "OwnableUnauthorizedAccount",
      "type": "error"
    },
    {
      "anonymous": false,
      "inputs": [
        {
          "indexed": true,
          "internalType": "address",
          "name": "owner",
          "type": "address"
        },
        {
          "indexed": true,
          "internalType": "address",
          "name": "approved",
          "type": "address"
        },
        {
          "indexed": true,
          "internalType": "uint256",
          "name": "tokenId",
          "type": "uint256"
        }
      ],
      "name": "Approval",
      "type": "event"
    },
    {
      "anonymous": false,
      "inputs": [
        {
          "indexed": true,
          "internalType": "address",
          "name": "owner",
          "type": "address"
        },
        {
          "indexed": true,
          "internalType": "address",
          "name": "operator",
          "type": "address"
        },
        {
          "indexed": false,
          "internalType": "bool",
          "name": "approved",
          "type": "bool"
        }
      ],
      "name": "ApprovalForAll",
      "type": "event"
    },
    {
      "anonymous": false,
      "inputs": [
        {
          "indexed": true,
          "internalType": "address",
          "name": "previousOwner",
          "type": "address"
        },
        {
          "indexed": true,
          "internalType": "address",
          "name": "newOwner",
          "type": "address"
        }
      ],
      "name": "OwnershipTransferred",
      "type": "event"
    },
    {
      "anonymous": false,
      "inputs": [
        {
          "indexed": true,
          "internalType": "address",
          "name": "from",
          "type": "address"
        },
        {
          "indexed": true,
          "internalType": "address",
          "name": "to",
          "type": "address"
        },
        {
          "indexed": true,
          "internalType": "uint256",
          "name": "tokenId",
          "type": "uint256"
        }
      ],
      "name": "Transfer",
      "type": "event"
    },
    {
      "inputs": [],
      "name": "DEFAULT_TIMEOUT",
      "outputs": [
        {
          "internalType": "uint256",
          "name": "",
          "type": "uint256"
        }
      ],
      "stateMutability": "view",
      "type": "function"
    },
    {
      "inputs": [
        {
          "internalType": "uint256",
          "name": "tokenId",
          "type": "uint256"
        },
        {
          "internalType": "address",
          "name": "user",
          "type": "address"
        }
      ],
      "name": "addToWhitelist",
      "outputs": [],
      "stateMutability": "nonpayable",
      "type": "function"
    },
    {
      "inputs": [
        {
          "internalType": "address",
          "name": "to",
          "type": "address"
        },
        {
          "internalType": "uint256",
          "name": "tokenId",
          "type": "uint256"
        }
      ],
      "name": "approve",
      "outputs": [],
      "stateMutability": "nonpayable",
      "type": "function"
    },
    {
      "inputs": [
        {
          "internalType": "address",
          "name": "owner",
          "type": "address"
        }
      ],
      "name": "balanceOf",
      "outputs": [
        {
          "internalType": "uint256",
          "name": "",
          "type": "uint256"
        }
      ],
      "stateMutability": "view",
      "type": "function"
    },
    {
      "inputs": [
        {
          "internalType": "uint256",
          "name": "tokenId",
          "type": "uint256"
        }
      ],
      "name": "checkIn",
      "outputs": [],
      "stateMutability": "nonpayable",
      "type": "function"
    },
    {
      "inputs": [
        {
          "internalType": "uint256",
          "name": "tokenId",
          "type": "uint256"
        }
      ],
      "name": "getApproved",
      "outputs": [
        {
          "internalType": "address",
          "name": "",
          "type": "address"
        }
      ],
      "stateMutability": "view",
      "type": "function"
    },
    {
      "inputs": [
        {
          "internalType": "uint256",
          "name": "tokenId",
          "type": "uint256"
        }
      ],
      "name": "getLinksArray",
      "outputs": [
        {
          "internalType": "string[]",
          "name": "",
          "type": "string[]"
        }
      ],
      "stateMutability": "view",
      "type": "function"
    },
    {
      "inputs": [
        {
          "internalType": "uint256",
          "name": "tokenId",
          "type": "uint256"
        }
      ],
      "name": "getTimeout",
      "outputs": [
        {
          "internalType": "uint256",
          "name": "",
          "type": "uint256"
        }
      ],
      "stateMutability": "view",
      "type": "function"
    },
    {
      "inputs": [
        {
          "internalType": "address",
          "name": "owner",
          "type": "address"
        },
        {
          "internalType": "address",
          "name": "operator",
          "type": "address"
        }
      ],
      "name": "isApprovedForAll",
      "outputs": [
        {
          "internalType": "bool",
          "name": "",
          "type": "bool"
        }
      ],
      "stateMutability": "view",
      "type": "function"
    },
    {
      "inputs": [
        {
          "internalType": "uint256",
          "name": "_tokenId",
          "type": "uint256"
        }
      ],
      "name": "isPublic",
      "outputs": [
        {
          "internalType": "bool",
          "name": "",
          "type": "bool"
        }
      ],
      "stateMutability": "view",
      "type": "function"
    },
    {
      "inputs": [
        {
          "internalType": "uint256",
          "name": "tokenId",
          "type": "uint256"
        },
        {
          "internalType": "address",
          "name": "user",
          "type": "address"
        }
      ],
      "name": "isWhitelisted",
      "outputs": [
        {
          "internalType": "bool",
          "name": "",
          "type": "bool"
        }
      ],
      "stateMutability": "view",
      "type": "function"
    },
    {
      "inputs": [
        {
          "internalType": "uint256",
          "name": "",
          "type": "uint256"
        }
      ],
      "name": "lastCheckedIn",
      "outputs": [
        {
          "internalType": "uint256",
          "name": "",
          "type": "uint256"
        }
      ],
      "stateMutability": "view",
      "type": "function"
    },
    {
      "inputs": [],
      "name": "mint",
      "outputs": [],
      "stateMutability": "payable",
      "type": "function"
    },
    {
      "inputs": [],
      "name": "mintFee",
      "outputs": [
        {
          "internalType": "uint256",
          "name": "",
          "type": "uint256"
        }
      ],
      "stateMutability": "view",
      "type": "function"
    },
    {
      "inputs": [],
      "name": "name",
      "outputs": [
        {
          "internalType": "string",
          "name": "",
          "type": "string"
        }
      ],
      "stateMutability": "view",
      "type": "function"
    },
    {
      "inputs": [
        {
          "internalType": "uint256",
          "name": "",
          "type": "uint256"
        }
      ],
      "name": "nftInfos",
      "outputs": [
        {
          "internalType": "enum DeadmanSwitch.AccessLevel",
          "name": "access",
          "type": "uint8"
        }
      ],
      "stateMutability": "view",
      "type": "function"
    },
    {
      "inputs": [],
      "name": "owner",
      "outputs": [
        {
          "internalType": "address",
          "name": "",
          "type": "address"
        }
      ],
      "stateMutability": "view",
      "type": "function"
    },
    {
      "inputs": [
        {
          "internalType": "uint256",
          "name": "tokenId",
          "type": "uint256"
        }
      ],
      "name": "ownerOf",
      "outputs": [
        {
          "internalType": "address",
          "name": "",
          "type": "address"
        }
      ],
      "stateMutability": "view",
      "type": "function"
    },
    {
      "inputs": [
        {
          "internalType": "uint256",
          "name": "tokenId",
          "type": "uint256"
        },
        {
          "internalType": "string",
          "name": "link",
          "type": "string"
        }
      ],
      "name": "pushLink",
      "outputs": [],
      "stateMutability": "nonpayable",
      "type": "function"
    },
    {
      "inputs": [],
      "name": "renounceOwnership",
      "outputs": [],
      "stateMutability": "nonpayable",
      "type": "function"
    },
    {
      "inputs": [
        {
          "internalType": "address",
          "name": "from",
          "type": "address"
        },
        {
          "internalType": "address",
          "name": "to",
          "type": "address"
        },
        {
          "internalType": "uint256",
          "name": "tokenId",
          "type": "uint256"
        }
      ],
      "name": "safeTransferFrom",
      "outputs": [],
      "stateMutability": "nonpayable",
      "type": "function"
    },
    {
      "inputs": [
        {
          "internalType": "address",
          "name": "from",
          "type": "address"
        },
        {
          "internalType": "address",
          "name": "to",
          "type": "address"
        },
        {
          "internalType": "uint256",
          "name": "tokenId",
          "type": "uint256"
        },
        {
          "internalType": "bytes",
          "name": "data",
          "type": "bytes"
        }
      ],
      "name": "safeTransferFrom",
      "outputs": [],
      "stateMutability": "nonpayable",
      "type": "function"
    },
    {
      "inputs": [
        {
          "internalType": "uint256",
          "name": "tokenId",
          "type": "uint256"
        },
        {
          "internalType": "enum DeadmanSwitch.AccessLevel",
          "name": "access",
          "type": "uint8"
        }
      ],
      "name": "setAccess",
      "outputs": [],
      "stateMutability": "nonpayable",
      "type": "function"
    },
    {
      "inputs": [
        {
          "internalType": "address",
          "name": "operator",
          "type": "address"
        },
        {
          "internalType": "bool",
          "name": "approved",
          "type": "bool"
        }
      ],
      "name": "setApprovalForAll",
      "outputs": [],
      "stateMutability": "nonpayable",
      "type": "function"
    },
    {
      "inputs": [
        {
          "internalType": "uint256",
          "name": "tokenId",
          "type": "uint256"
        },
        {
          "internalType": "uint256",
          "name": "timeoutInSeconds",
          "type": "uint256"
        }
      ],
      "name": "setCustomTimeout",
      "outputs": [],
      "stateMutability": "nonpayable",
      "type": "function"
    },
    {
      "inputs": [
        {
          "internalType": "bytes4",
          "name": "interfaceId",
          "type": "bytes4"
        }
      ],
      "name": "supportsInterface",
      "outputs": [
        {
          "internalType": "bool",
          "name": "",
          "type": "bool"
        }
      ],
      "stateMutability": "view",
      "type": "function"
    },
    {
      "inputs": [],
      "name": "symbol",
      "outputs": [
        {
          "internalType": "string",
          "name": "",
          "type": "string"
        }
      ],
      "stateMutability": "view",
      "type": "function"
    },
    {
      "inputs": [],
      "name": "tokenCounter",
      "outputs": [
        {
          "internalType": "uint256",
          "name": "",
          "type": "uint256"
        }
      ],
      "stateMutability": "view",
      "type": "function"
    },
    {
      "inputs": [
        {
          "internalType": "uint256",
          "name": "",
          "type": "uint256"
        }
      ],
      "name": "tokenTimeout",
      "outputs": [
        {
          "internalType": "uint256",
          "name": "",
          "type": "uint256"
        }
      ],
      "stateMutability": "view",
      "type": "function"
    },
    {
      "inputs": [
        {
          "internalType": "uint256",
          "name": "tokenId",
          "type": "uint256"
        }
      ],
      "name": "tokenURI",
      "outputs": [
        {
          "internalType": "string",
          "name": "",
          "type": "string"
        }
      ],
      "stateMutability": "view",
      "type": "function"
    },
    {
      "inputs": [
        {
          "internalType": "address",
          "name": "from",
          "type": "address"
        },
        {
          "internalType": "address",
          "name": "to",
          "type": "address"
        },
        {
          "internalType": "uint256",
          "name": "tokenId",
          "type": "uint256"
        }
      ],
      "name": "transferFrom",
      "outputs": [],
      "stateMutability": "nonpayable",
      "type": "function"
    },
    {
      "inputs": [
        {
          "internalType": "address",
          "name": "newOwner",
          "type": "address"
        }
      ],
      "name": "transferOwnership",
      "outputs": [],
      "stateMutability": "nonpayable",
      "type": "function"
    },
    {
      "inputs": [
        {
          "internalType": "uint256",
          "name": "tokenId",
          "type": "uint256"
        }
      ],
      "name": "viewLinks",
      "outputs": [
        {
          "internalType": "string[]",
          "name": "",
          "type": "string[]"
        }
      ],
      "stateMutability": "view",
      "type": "function"
    },
    {
      "inputs": [],
      "name": "withdraw",
      "outputs": [],
      "stateMutability": "nonpayable",
      "type": "function"
    }
  ],
  "bytecode": "0x60806040526001600755662386f26fc100006008553480156200002157600080fd5b50336040518060400160405280600d81526020017f446561646d616e537769746368000000000000000000000000000000000000008152506040518060400160405280600381526020017f444d5300000000000000000000000000000000000000000000000000000000008152508160009081620000a0919062000482565b508060019081620000b2919062000482565b505050600073ffffffffffffffffffffffffffffffffffffffff168173ffffffffffffffffffffffffffffffffffffffff16036200012a5760006040517f1e4fbdf7000000000000000000000000000000000000000000000000000000008152600401620001219190620005ae565b60405180910390fd5b6200013b816200014260201b60201c565b50620005cb565b6000600660009054906101000a900473ffffffffffffffffffffffffffffffffffffffff16905081600660006101000a81548173ffffffffffffffffffffffffffffffffffffffff021916908373ffffffffffffffffffffffffffffffffffffffff1602179055508173ffffffffffffffffffffffffffffffffffffffff168173ffffffffffffffffffffffffffffffffffffffff167f8be0079c531659141344cd1fd0a4f28419497f9722a3daafe3b4186f6b6457e060405160405180910390a35050565b600081519050919050565b7f4e487b7100000000000000000000000000000000000000000000000000000000600052604160045260246000fd5b7f4e487b7100000000000000000000000000000000000000000000000000000000600052602260045260246000fd5b600060028204905060018216806200028a57607f821691505b602082108103620002a0576200029f62000242565b5b50919050565b60008190508160005260206000209050919050565b60006020601f8301049050919050565b600082821b905092915050565b6000600883026200030a7fffffffffffffffffffffffffffffffffffffffffffffffffffffffffffffffff82620002cb565b620003168683620002cb565b95508019841693508086168417925050509392505050565b6000819050919050565b6000819050919050565b6000620003636200035d62000357846200032e565b62000338565b6200032e565b9050919050565b6000819050919050565b6200037f8362000342565b620003976200038e826200036a565b848454620002d8565b825550505050565b600090565b620003ae6200039f565b620003bb81848462000374565b505050565b5b81811015620003e357620003d7600082620003a4565b600181019050620003c1565b5050565b601f8211156200043257620003fc81620002a6565b6200040784620002bb565b8101602085101562000417578190505b6200042f6200042685620002bb565b830182620003c0565b50505b505050565b600082821c905092915050565b6000620004576000198460080262000437565b1980831691505092915050565b600062000472838362000444565b9150826002028217905092915050565b6200048d8262000208565b67ffffffffffffffff811115620004a957620004a862000213565b5b620004b5825462000271565b620004c2828285620003e7565b600060209050601f831160018114620004fa5760008415620004e5578287015190505b620004f1858262000464565b86555062000561565b601f1984166200050a86620002a6565b60005b8281101562000534578489015182556001820191506020850194506020810190506200050d565b8683101562000554578489015162000550601f89168262000444565b8355505b6001600288020188555050505b505050505050565b600073ffffffffffffffffffffffffffffffffffffffff82169050919050565b6000620005968262000569565b9050919050565b620005a88162000589565b82525050565b6000602082019050620005c560008301846200059d565b92915050565b61422880620005db6000396000f3fe6080604052600436106101f95760003560e01c80637d22c35c1161010d578063c405f5b8116100a0578063db7b96101161006f578063db7b96101461075c578063e95a644f14610799578063e985e9c5146107c2578063ed2b785f146107ff578063f2fde38b14610828576101f9565b8063c405f5b81461068e578063c87b56dd146106cb578063d082e38114610708578063db7569e314610733576101f9565b806395d89b41116100dc57806395d89b41146105e65780639add92e414610611578063a22cb4651461063c578063b88d4fde14610665576101f9565b80637d22c35c146105045780638389f5d5146105415780638889cba21461057e5780638da5cb5b146105bb576101f9565b80633c17342411610190578063563a85021161015f578063563a85021461040d5780635b2dfeb8146104365780636352211e1461047357806370a08231146104b0578063715018a6146104ed576101f9565b80633c173424146103535780633ccfd60b1461039057806342842e0e146103a75780634bc834eb146103d0576101f9565b80631249c58b116101cc5780631249c58b146102cc57806313966db5146102d657806323b872dd146103015780632d7854611461032a576101f9565b806301ffc9a7146101fe57806306fdde031461023b578063081812fc14610266578063095ea7b3146102a3575b600080fd5b34801561020a57600080fd5b5061022560048036038101906102209190612dd0565b610851565b6040516102329190612e18565b60405180910390f35b34801561024757600080fd5b50610250610933565b60405161025d9190612ec3565b60405180910390f35b34801561027257600080fd5b5061028d60048036038101906102889190612f1b565b6109c5565b60405161029a9190612f89565b60405180910390f35b3480156102af57600080fd5b506102ca60048036038101906102c59190612fd0565b6109e1565b005b6102d46109f7565b005b3480156102e257600080fd5b506102eb610b2a565b6040516102f8919061301f565b60405180910390f35b34801561030d57600080fd5b506103286004803603810190610323919061303a565b610b30565b005b34801561033657600080fd5b50610351600480360381019061034c919061308d565b610c32565b005b34801561035f57600080fd5b5061037a60048036038101906103759190612f1b565b610d68565b604051610387919061301f565b60405180910390f35b34801561039c57600080fd5b506103a5610d80565b005b3480156103b357600080fd5b506103ce60048036038101906103c9919061303a565b610e3d565b005b3480156103dc57600080fd5b506103f760048036038101906103f29190612f1b565b610e5d565b6040516104049190613144565b60405180910390f35b34801561041957600080fd5b50610434600480360381019061042f919061315f565b610e88565b005b34801561044257600080fd5b5061045d60048036038101906104589190612f1b565b610f1a565b60405161046a9190612e18565b60405180910390f35b34801561047f57600080fd5b5061049a60048036038101906104959190612f1b565b610fbc565b6040516104a79190612f89565b60405180910390f35b3480156104bc57600080fd5b506104d760048036038101906104d2919061319f565b610fce565b6040516104e4919061301f565b60405180910390f35b3480156104f957600080fd5b50610502611088565b005b34801561051057600080fd5b5061052b6004803603810190610526919061308d565b61109c565b6040516105389190612e18565b60405180910390f35b34801561054d57600080fd5b5061056860048036038101906105639190612f1b565b6111c0565b60405161057591906132d8565b60405180910390f35b34801561058a57600080fd5b506105a560048036038101906105a09190612f1b565b6112fa565b6040516105b2919061301f565b60405180910390f35b3480156105c757600080fd5b506105d061133d565b6040516105dd9190612f89565b60405180910390f35b3480156105f257600080fd5b506105fb611367565b6040516106089190612ec3565b60405180910390f35b34801561061d57600080fd5b506106266113f9565b604051610633919061301f565b60405180910390f35b34801561064857600080fd5b50610663600480360381019061065e9190613326565b611400565b005b34801561067157600080fd5b5061068c6004803603810190610687919061349b565b611416565b005b34801561069a57600080fd5b506106b560048036038101906106b09190612f1b565b611433565b6040516106c2919061301f565b60405180910390f35b3480156106d757600080fd5b506106f260048036038101906106ed9190612f1b565b61144b565b6040516106ff9190612ec3565b60405180910390f35b34801561071457600080fd5b5061071d6114b4565b60405161072a919061301f565b60405180910390f35b34801561073f57600080fd5b5061075a60048036038101906107559190613543565b6114ba565b005b34801561076857600080fd5b50610783600480360381019061077e9190612f1b565b6115b7565b60405161079091906132d8565b60405180910390f35b3480156107a557600080fd5b506107c060048036038101906107bb9190612f1b565b611b43565b005b3480156107ce57600080fd5b506107e960048036038101906107e49190613583565b611bd4565b6040516107f69190612e18565b60405180910390f35b34801561080b57600080fd5b5061082660048036038101906108219190613664565b611c68565b005b34801561083457600080fd5b5061084f600480360381019061084a919061319f565b611d76565b005b60007f80ac58cd000000000000000000000000000000000000000000000000000000007bffffffffffffffffffffffffffffffffffffffffffffffffffffffff1916827bffffffffffffffffffffffffffffffffffffffffffffffffffffffff1916148061091c57507f5b5e139f000000000000000000000000000000000000000000000000000000007bffffffffffffffffffffffffffffffffffffffffffffffffffffffff1916827bffffffffffffffffffffffffffffffffffffffffffffffffffffffff1916145b8061092c575061092b82611dfc565b5b9050919050565b606060008054610942906136ef565b80601f016020809104026020016040519081016040528092919081815260200182805461096e906136ef565b80156109bb5780601f10610990576101008083540402835291602001916109bb565b820191906000526020600020905b81548152906001019060200180831161099e57829003601f168201915b5050505050905090565b60006109d082611e66565b506109da82611eee565b9050919050565b6109f382826109ee611f2b565b611f33565b5050565b600854341015610a3c576040517f08c379a0000000000000000000000000000000000000000000000000000000008152600401610a339061376c565b60405180910390fd5b610a4833600754611f45565b6000600960006007548152602001908152602001600020905060008160010160006101000a81548160ff02191690836002811115610a8957610a886130cd565b5b0217905550600067ffffffffffffffff811115610aa957610aa8613370565b5b604051908082528060200260200182016040528015610adc57816020015b6060815260200190600190039081610ac75790505b50816000019080519060200190610af4929190612c8a565b5042600a600060075481526020019081526020016000208190555060076000815480929190610b22906137bb565b919050555050565b60085481565b600073ffffffffffffffffffffffffffffffffffffffff168273ffffffffffffffffffffffffffffffffffffffff1603610ba25760006040517f64a0ae92000000000000000000000000000000000000000000000000000000008152600401610b999190612f89565b60405180910390fd5b6000610bb68383610bb1611f2b565b61203e565b90508373ffffffffffffffffffffffffffffffffffffffff168173ffffffffffffffffffffffffffffffffffffffff1614610c2c578382826040517f64283d7b000000000000000000000000000000000000000000000000000000008152600401610c2393929190613803565b60405180910390fd5b50505050565b600754821115610c77576040517f08c379a0000000000000000000000000000000000000000000000000000000008152600401610c6e90613886565b60405180910390fd5b610c8082610fbc565b73ffffffffffffffffffffffffffffffffffffffff163373ffffffffffffffffffffffffffffffffffffffff1614610ced576040517f08c379a0000000000000000000000000000000000000000000000000000000008152600401610ce490613918565b60405180910390fd5b60096000838152602001908152602001600020600201819080600181540180825580915050600190039060005260206000200160009091909190916101000a81548173ffffffffffffffffffffffffffffffffffffffff021916908373ffffffffffffffffffffffffffffffffffffffff1602179055505050565b600b6020528060005260406000206000915090505481565b610d88612258565b600047905060003373ffffffffffffffffffffffffffffffffffffffff1682604051610db390613969565b60006040518083038185875af1925050503d8060008114610df0576040519150601f19603f3d011682016040523d82523d6000602084013e610df5565b606091505b5050905080610e39576040517f08c379a0000000000000000000000000000000000000000000000000000000008152600401610e30906139ca565b60405180910390fd5b5050565b610e5883838360405180602001604052806000815250611416565b505050565b60096020528060005260406000206000915090508060010160009054906101000a900460ff16905081565b3373ffffffffffffffffffffffffffffffffffffffff16610ea883610fbc565b73ffffffffffffffffffffffffffffffffffffffff1614610efe576040517f08c379a0000000000000000000000000000000000000000000000000000000008152600401610ef590613a5c565b60405180910390fd5b80600b6000848152602001908152602001600020819055505050565b600080610f26836112fa565b90504281600a600086815260200190815260200160002054610f489190613a7c565b1015610f58576001915050610fb7565b60016002811115610f6c57610f6b6130cd565b5b6009600085815260200190815260200160002060010160009054906101000a900460ff166002811115610fa257610fa16130cd565b5b03610fb1576001915050610fb7565b60009150505b919050565b6000610fc782611e66565b9050919050565b60008073ffffffffffffffffffffffffffffffffffffffff168273ffffffffffffffffffffffffffffffffffffffff16036110415760006040517f89c62b640000000000000000000000000000000000000000000000000000000081526004016110389190612f89565b60405180910390fd5b600360008373ffffffffffffffffffffffffffffffffffffffff1673ffffffffffffffffffffffffffffffffffffffff168152602001908152602001600020549050919050565b611090612258565b61109a60006122df565b565b6000806009600085815260200190815260200160002060020180548060200260200160405190810160405280929190818152602001828054801561113557602002820191906000526020600020905b8160009054906101000a900473ffffffffffffffffffffffffffffffffffffffff1673ffffffffffffffffffffffffffffffffffffffff16815260200190600101908083116110eb575b5050505050905060005b81518110156111b3578373ffffffffffffffffffffffffffffffffffffffff1682828151811061117257611171613ab0565b5b602002602001015173ffffffffffffffffffffffffffffffffffffffff16036111a0576001925050506111ba565b80806111ab906137bb565b91505061113f565b5060009150505b92915050565b6060600754821115611207576040517f08c379a00000000000000000000000000000000000000000000000000000000081526004016111fe90613886565b60405180910390fd5b600060096000848152602001908152602001600020905080600001805480602002602001604051908101604052809291908181526020016000905b828210156112ee578382906000526020600020018054611261906136ef565b80601f016020809104026020016040519081016040528092919081815260200182805461128d906136ef565b80156112da5780601f106112af576101008083540402835291602001916112da565b820191906000526020600020905b8154815290600101906020018083116112bd57829003601f168201915b505050505081526020019060010190611242565b50505050915050919050565b600080600b600084815260200190815260200160002054036113215762278d009050611338565b600b60008381526020019081526020016000205490505b919050565b6000600660009054906101000a900473ffffffffffffffffffffffffffffffffffffffff16905090565b606060018054611376906136ef565b80601f01602080910402602001604051908101604052809291908181526020018280546113a2906136ef565b80156113ef5780601f106113c4576101008083540402835291602001916113ef565b820191906000526020600020905b8154815290600101906020018083116113d257829003601f168201915b5050505050905090565b62278d0081565b61141261140b611f2b565b83836123a5565b5050565b611421848484610b30565b61142d84848484612514565b50505050565b600a6020528060005260406000206000915090505481565b606061145682611e66565b5060006114616126cb565b9050600081511161148157604051806020016040528060008152506114ac565b8061148b846126e2565b60405160200161149c929190613b1b565b6040516020818303038152906040525b915050919050565b60075481565b6007548211156114ff576040517f08c379a00000000000000000000000000000000000000000000000000000000081526004016114f690613886565b60405180910390fd5b61150882610fbc565b73ffffffffffffffffffffffffffffffffffffffff163373ffffffffffffffffffffffffffffffffffffffff1614611575576040517f08c379a000000000000000000000000000000000000000000000000000000000815260040161156c90613b8b565b60405180910390fd5b806009600084815260200190815260200160002060010160006101000a81548160ff021916908360028111156115ae576115ad6130cd565b5b02179055505050565b60606007548211156115fe576040517f08c379a00000000000000000000000000000000000000000000000000000000081526004016115f590613886565b60405180910390fd5b600061160933610fce565b11611649576040517f08c379a000000000000000000000000000000000000000000000000000000000815260040161164090613c1d565b60405180910390fd5b6001600281111561165d5761165c6130cd565b5b6009600084815260200190815260200160002060010160009054906101000a900460ff166002811115611693576116926130cd565b5b14806116c457506116a3826112fa565b600a6000848152602001908152602001600020546116c19190613a7c565b42115b156117b65760096000838152602001908152602001600020600001805480602002602001604051908101604052809291908181526020016000905b828210156117ab57838290600052602060002001805461171e906136ef565b80601f016020809104026020016040519081016040528092919081815260200182805461174a906136ef565b80156117975780601f1061176c57610100808354040283529160200191611797565b820191906000526020600020905b81548152906001019060200180831161177a57829003601f168201915b5050505050815260200190600101906116ff565b505050509050611b3e565b600060028111156117ca576117c96130cd565b5b6009600084815260200190815260200160002060010160009054906101000a900460ff166002811115611800576117ff6130cd565b5b036119685761180e82610fbc565b73ffffffffffffffffffffffffffffffffffffffff163373ffffffffffffffffffffffffffffffffffffffff161461187b576040517f08c379a000000000000000000000000000000000000000000000000000000000815260040161187290613caf565b60405180910390fd5b60096000838152602001908152602001600020600001805480602002602001604051908101604052809291908181526020016000905b8282101561195d5783829060005260206000200180546118d0906136ef565b80601f01602080910402602001604051908101604052809291908181526020018280546118fc906136ef565b80156119495780601f1061191e57610100808354040283529160200191611949565b820191906000526020600020905b81548152906001019060200180831161192c57829003601f168201915b5050505050815260200190600101906118b1565b505050509050611b3e565b60028081111561197b5761197a6130cd565b5b6009600084815260200190815260200160002060010160009054906101000a900460ff1660028111156119b1576119b06130cd565b5b03611aec576119c0823361109c565b6119ff576040517f08c379a00000000000000000000000000000000000000000000000000000000081526004016119f690613d41565b60405180910390fd5b60096000838152602001908152602001600020600001805480602002602001604051908101604052809291908181526020016000905b82821015611ae1578382906000526020600020018054611a54906136ef565b80601f0160208091040260200160405190810160405280929190818152602001828054611a80906136ef565b8015611acd5780601f10611aa257610100808354040283529160200191611acd565b820191906000526020600020905b815481529060010190602001808311611ab057829003601f168201915b505050505081526020019060010190611a35565b505050509050611b3e565b600067ffffffffffffffff811115611b0757611b06613370565b5b604051908082528060200260200182016040528015611b3a57816020015b6060815260200190600190039081611b255790505b5090505b919050565b3373ffffffffffffffffffffffffffffffffffffffff16611b6382610fbc565b73ffffffffffffffffffffffffffffffffffffffff1614611bb9576040517f08c379a0000000000000000000000000000000000000000000000000000000008152600401611bb090613dad565b60405180910390fd5b42600a60008381526020019081526020016000208190555050565b6000600560008473ffffffffffffffffffffffffffffffffffffffff1673ffffffffffffffffffffffffffffffffffffffff16815260200190815260200160002060008373ffffffffffffffffffffffffffffffffffffffff1673ffffffffffffffffffffffffffffffffffffffff16815260200190815260200160002060009054906101000a900460ff16905092915050565b6000600960008481526020019081526020016000209050600754831115611cc4576040517f08c379a0000000000000000000000000000000000000000000000000000000008152600401611cbb90613886565b60405180910390fd5b611ccd83610fbc565b73ffffffffffffffffffffffffffffffffffffffff163373ffffffffffffffffffffffffffffffffffffffff1614611d3a576040517f08c379a0000000000000000000000000000000000000000000000000000000008152600401611d3190613e19565b60405180910390fd5b8060000182908060018154018082558091505060019003906000526020600020016000909190919091509081611d709190613fe5565b50505050565b611d7e612258565b600073ffffffffffffffffffffffffffffffffffffffff168173ffffffffffffffffffffffffffffffffffffffff1603611df05760006040517f1e4fbdf7000000000000000000000000000000000000000000000000000000008152600401611de79190612f89565b60405180910390fd5b611df9816122df565b50565b60007f01ffc9a7000000000000000000000000000000000000000000000000000000007bffffffffffffffffffffffffffffffffffffffffffffffffffffffff1916827bffffffffffffffffffffffffffffffffffffffffffffffffffffffff1916149050919050565b600080611e72836127b0565b9050600073ffffffffffffffffffffffffffffffffffffffff168173ffffffffffffffffffffffffffffffffffffffff1603611ee557826040517f7e273289000000000000000000000000000000000000000000000000000000008152600401611edc919061301f565b60405180910390fd5b80915050919050565b60006004600083815260200190815260200160002060009054906101000a900473ffffffffffffffffffffffffffffffffffffffff169050919050565b600033905090565b611f4083838360016127ed565b505050565b600073ffffffffffffffffffffffffffffffffffffffff168273ffffffffffffffffffffffffffffffffffffffff1603611fb75760006040517f64a0ae92000000000000000000000000000000000000000000000000000000008152600401611fae9190612f89565b60405180910390fd5b6000611fc58383600061203e565b9050600073ffffffffffffffffffffffffffffffffffffffff168173ffffffffffffffffffffffffffffffffffffffff16146120395760006040517f73c6ac6e0000000000000000000000000000000000000000000000000000000081526004016120309190612f89565b60405180910390fd5b505050565b60008061204a846127b0565b9050600073ffffffffffffffffffffffffffffffffffffffff168373ffffffffffffffffffffffffffffffffffffffff161461208c5761208b8184866129b2565b5b600073ffffffffffffffffffffffffffffffffffffffff168173ffffffffffffffffffffffffffffffffffffffff161461211d576120ce6000856000806127ed565b6001600360008373ffffffffffffffffffffffffffffffffffffffff1673ffffffffffffffffffffffffffffffffffffffff168152602001908152602001600020600082825403925050819055505b600073ffffffffffffffffffffffffffffffffffffffff168573ffffffffffffffffffffffffffffffffffffffff16146121a0576001600360008773ffffffffffffffffffffffffffffffffffffffff1673ffffffffffffffffffffffffffffffffffffffff168152602001908152602001600020600082825401925050819055505b846002600086815260200190815260200160002060006101000a81548173ffffffffffffffffffffffffffffffffffffffff021916908373ffffffffffffffffffffffffffffffffffffffff160217905550838573ffffffffffffffffffffffffffffffffffffffff168273ffffffffffffffffffffffffffffffffffffffff167fddf252ad1be2c89b69c2b068fc378daa952ba7f163c4a11628f55a4df523b3ef60405160405180910390a4809150509392505050565b612260611f2b565b73ffffffffffffffffffffffffffffffffffffffff1661227e61133d565b73ffffffffffffffffffffffffffffffffffffffff16146122dd576122a1611f2b565b6040517f118cdaa70000000000000000000000000000000000000000000000000000000081526004016122d49190612f89565b60405180910390fd5b565b6000600660009054906101000a900473ffffffffffffffffffffffffffffffffffffffff16905081600660006101000a81548173ffffffffffffffffffffffffffffffffffffffff021916908373ffffffffffffffffffffffffffffffffffffffff1602179055508173ffffffffffffffffffffffffffffffffffffffff168173ffffffffffffffffffffffffffffffffffffffff167f8be0079c531659141344cd1fd0a4f28419497f9722a3daafe3b4186f6b6457e060405160405180910390a35050565b600073ffffffffffffffffffffffffffffffffffffffff168273ffffffffffffffffffffffffffffffffffffffff160361241657816040517f5b08ba1800000000000000000000000000000000000000000000000000000000815260040161240d9190612f89565b60405180910390fd5b80600560008573ffffffffffffffffffffffffffffffffffffffff1673ffffffffffffffffffffffffffffffffffffffff16815260200190815260200160002060008473ffffffffffffffffffffffffffffffffffffffff1673ffffffffffffffffffffffffffffffffffffffff16815260200190815260200160002060006101000a81548160ff0219169083151502179055508173ffffffffffffffffffffffffffffffffffffffff168373ffffffffffffffffffffffffffffffffffffffff167f17307eab39ab6107e8899845ad3d59bd9653f200f220920489ca2b5937696c31836040516125079190612e18565b60405180910390a3505050565b60008373ffffffffffffffffffffffffffffffffffffffff163b11156126c5578273ffffffffffffffffffffffffffffffffffffffff1663150b7a02612558611f2b565b8685856040518563ffffffff1660e01b815260040161257a949392919061410c565b6020604051808303816000875af19250505080156125b657506040513d601f19601f820116820180604052508101906125b3919061416d565b60015b61263a573d80600081146125e6576040519150601f19603f3d011682016040523d82523d6000602084013e6125eb565b606091505b50600081510361263257836040517f64a0ae920000000000000000000000000000000000000000000000000000000081526004016126299190612f89565b60405180910390fd5b805181602001fd5b63150b7a0260e01b7bffffffffffffffffffffffffffffffffffffffffffffffffffffffff1916817bffffffffffffffffffffffffffffffffffffffffffffffffffffffff1916146126c357836040517f64a0ae920000000000000000000000000000000000000000000000000000000081526004016126ba9190612f89565b60405180910390fd5b505b50505050565b606060405180602001604052806000815250905090565b6060600060016126f184612a76565b01905060008167ffffffffffffffff8111156127105761270f613370565b5b6040519080825280601f01601f1916602001820160405280156127425781602001600182028036833780820191505090505b509050600082602001820190505b6001156127a5578080600190039150507f3031323334353637383961626364656600000000000000000000000000000000600a86061a8153600a85816127995761279861419a565b5b04945060008503612750575b819350505050919050565b60006002600083815260200190815260200160002060009054906101000a900473ffffffffffffffffffffffffffffffffffffffff169050919050565b80806128265750600073ffffffffffffffffffffffffffffffffffffffff168273ffffffffffffffffffffffffffffffffffffffff1614155b1561295a57600061283684611e66565b9050600073ffffffffffffffffffffffffffffffffffffffff168373ffffffffffffffffffffffffffffffffffffffff16141580156128a157508273ffffffffffffffffffffffffffffffffffffffff168173ffffffffffffffffffffffffffffffffffffffff1614155b80156128b457506128b28184611bd4565b155b156128f657826040517fa9fbf51f0000000000000000000000000000000000000000000000000000000081526004016128ed9190612f89565b60405180910390fd5b811561295857838573ffffffffffffffffffffffffffffffffffffffff168273ffffffffffffffffffffffffffffffffffffffff167f8c5be1e5ebec7d5bd14f71427d1e84f3dd0314c0f7b2291e5b200ac8c7c3b92560405160405180910390a45b505b836004600085815260200190815260200160002060006101000a81548173ffffffffffffffffffffffffffffffffffffffff021916908373ffffffffffffffffffffffffffffffffffffffff16021790555050505050565b6129bd838383612bc9565b612a7157600073ffffffffffffffffffffffffffffffffffffffff168373ffffffffffffffffffffffffffffffffffffffff1603612a3257806040517f7e273289000000000000000000000000000000000000000000000000000000008152600401612a29919061301f565b60405180910390fd5b81816040517f177e802f000000000000000000000000000000000000000000000000000000008152600401612a689291906141c9565b60405180910390fd5b505050565b600080600090507a184f03e93ff9f4daa797ed6e38ed64bf6a1f0100000000000000008310612ad4577a184f03e93ff9f4daa797ed6e38ed64bf6a1f0100000000000000008381612aca57612ac961419a565b5b0492506040810190505b6d04ee2d6d415b85acef81000000008310612b11576d04ee2d6d415b85acef81000000008381612b0757612b0661419a565b5b0492506020810190505b662386f26fc100008310612b4057662386f26fc100008381612b3657612b3561419a565b5b0492506010810190505b6305f5e1008310612b69576305f5e1008381612b5f57612b5e61419a565b5b0492506008810190505b6127108310612b8e576127108381612b8457612b8361419a565b5b0492506004810190505b60648310612bb15760648381612ba757612ba661419a565b5b0492506002810190505b600a8310612bc0576001810190505b80915050919050565b60008073ffffffffffffffffffffffffffffffffffffffff168373ffffffffffffffffffffffffffffffffffffffff1614158015612c8157508273ffffffffffffffffffffffffffffffffffffffff168473ffffffffffffffffffffffffffffffffffffffff161480612c425750612c418484611bd4565b5b80612c8057508273ffffffffffffffffffffffffffffffffffffffff16612c6883611eee565b73ffffffffffffffffffffffffffffffffffffffff16145b5b90509392505050565b828054828255906000526020600020908101928215612cd2579160200282015b82811115612cd1578251829081612cc19190613fe5565b5091602001919060010190612caa565b5b509050612cdf9190612ce3565b5090565b5b80821115612d035760008181612cfa9190612d07565b50600101612ce4565b5090565b508054612d13906136ef565b6000825580601f10612d255750612d44565b601f016020900490600052602060002090810190612d439190612d47565b5b50565b5b80821115612d60576000816000905550600101612d48565b5090565b6000604051905090565b600080fd5b600080fd5b60007fffffffff0000000000000000000000000000000000000000000000000000000082169050919050565b612dad81612d78565b8114612db857600080fd5b50565b600081359050612dca81612da4565b92915050565b600060208284031215612de657612de5612d6e565b5b6000612df484828501612dbb565b91505092915050565b60008115159050919050565b612e1281612dfd565b82525050565b6000602082019050612e2d6000830184612e09565b92915050565b600081519050919050565b600082825260208201905092915050565b60005b83811015612e6d578082015181840152602081019050612e52565b60008484015250505050565b6000601f19601f8301169050919050565b6000612e9582612e33565b612e9f8185612e3e565b9350612eaf818560208601612e4f565b612eb881612e79565b840191505092915050565b60006020820190508181036000830152612edd8184612e8a565b905092915050565b6000819050919050565b612ef881612ee5565b8114612f0357600080fd5b50565b600081359050612f1581612eef565b92915050565b600060208284031215612f3157612f30612d6e565b5b6000612f3f84828501612f06565b91505092915050565b600073ffffffffffffffffffffffffffffffffffffffff82169050919050565b6000612f7382612f48565b9050919050565b612f8381612f68565b82525050565b6000602082019050612f9e6000830184612f7a565b92915050565b612fad81612f68565b8114612fb857600080fd5b50565b600081359050612fca81612fa4565b92915050565b60008060408385031215612fe757612fe6612d6e565b5b6000612ff585828601612fbb565b925050602061300685828601612f06565b9150509250929050565b61301981612ee5565b82525050565b60006020820190506130346000830184613010565b92915050565b60008060006060848603121561305357613052612d6e565b5b600061306186828701612fbb565b935050602061307286828701612fbb565b925050604061308386828701612f06565b9150509250925092565b600080604083850312156130a4576130a3612d6e565b5b60006130b285828601612f06565b92505060206130c385828601612fbb565b9150509250929050565b7f4e487b7100000000000000000000000000000000000000000000000000000000600052602160045260246000fd5b6003811061310d5761310c6130cd565b5b50565b600081905061311e826130fc565b919050565b600061312e82613110565b9050919050565b61313e81613123565b82525050565b60006020820190506131596000830184613135565b92915050565b6000806040838503121561317657613175612d6e565b5b600061318485828601612f06565b925050602061319585828601612f06565b9150509250929050565b6000602082840312156131b5576131b4612d6e565b5b60006131c384828501612fbb565b91505092915050565b600081519050919050565b600082825260208201905092915050565b6000819050602082019050919050565b600082825260208201905092915050565b600061321482612e33565b61321e81856131f8565b935061322e818560208601612e4f565b61323781612e79565b840191505092915050565b600061324e8383613209565b905092915050565b6000602082019050919050565b600061326e826131cc565b61327881856131d7565b93508360208202850161328a856131e8565b8060005b858110156132c657848403895281516132a78582613242565b94506132b283613256565b925060208a0199505060018101905061328e565b50829750879550505050505092915050565b600060208201905081810360008301526132f28184613263565b905092915050565b61330381612dfd565b811461330e57600080fd5b50565b600081359050613320816132fa565b92915050565b6000806040838503121561333d5761333c612d6e565b5b600061334b85828601612fbb565b925050602061335c85828601613311565b9150509250929050565b600080fd5b600080fd5b7f4e487b7100000000000000000000000000000000000000000000000000000000600052604160045260246000fd5b6133a882612e79565b810181811067ffffffffffffffff821117156133c7576133c6613370565b5b80604052505050565b60006133da612d64565b90506133e6828261339f565b919050565b600067ffffffffffffffff82111561340657613405613370565b5b61340f82612e79565b9050602081019050919050565b82818337600083830152505050565b600061343e613439846133eb565b6133d0565b90508281526020810184848401111561345a5761345961336b565b5b61346584828561341c565b509392505050565b600082601f83011261348257613481613366565b5b813561349284826020860161342b565b91505092915050565b600080600080608085870312156134b5576134b4612d6e565b5b60006134c387828801612fbb565b94505060206134d487828801612fbb565b93505060406134e587828801612f06565b925050606085013567ffffffffffffffff81111561350657613505612d73565b5b6135128782880161346d565b91505092959194509250565b6003811061352b57600080fd5b50565b60008135905061353d8161351e565b92915050565b6000806040838503121561355a57613559612d6e565b5b600061356885828601612f06565b92505060206135798582860161352e565b9150509250929050565b6000806040838503121561359a57613599612d6e565b5b60006135a885828601612fbb565b92505060206135b985828601612fbb565b9150509250929050565b600067ffffffffffffffff8211156135de576135dd613370565b5b6135e782612e79565b9050602081019050919050565b6000613607613602846135c3565b6133d0565b9050828152602081018484840111156136235761362261336b565b5b61362e84828561341c565b509392505050565b600082601f83011261364b5761364a613366565b5b813561365b8482602086016135f4565b91505092915050565b6000806040838503121561367b5761367a612d6e565b5b600061368985828601612f06565b925050602083013567ffffffffffffffff8111156136aa576136a9612d73565b5b6136b685828601613636565b9150509250929050565b7f4e487b7100000000000000000000000000000000000000000000000000000000600052602260045260246000fd5b6000600282049050600182168061370757607f821691505b60208210810361371a576137196136c0565b5b50919050565b7f4e6f7420656e6f7567682045746865722070726f76696465642e000000000000600082015250565b6000613756601a83612e3e565b915061376182613720565b602082019050919050565b6000602082019050818103600083015261378581613749565b9050919050565b7f4e487b7100000000000000000000000000000000000000000000000000000000600052601160045260246000fd5b60006137c682612ee5565b91507fffffffffffffffffffffffffffffffffffffffffffffffffffffffffffffffff82036137f8576137f761378c565b5b600182019050919050565b60006060820190506138186000830186612f7a565b6138256020830185613010565b6138326040830184612f7a565b949350505050565b7f4e465420646f6573206e6f742065786973740000000000000000000000000000600082015250565b6000613870601283612e3e565b915061387b8261383a565b602082019050919050565b6000602082019050818103600083015261389f81613863565b9050919050565b7f4f6e6c7920746865206f776e65722063616e2061646420746f2074686520776860008201527f6974656c69737400000000000000000000000000000000000000000000000000602082015250565b6000613902602783612e3e565b915061390d826138a6565b604082019050919050565b60006020820190508181036000830152613931816138f5565b9050919050565b600081905092915050565b50565b6000613953600083613938565b915061395e82613943565b600082019050919050565b600061397482613946565b9150819050919050565b7f5472616e73666572206661696c65640000000000000000000000000000000000600082015250565b60006139b4600f83612e3e565b91506139bf8261397e565b602082019050919050565b600060208201905081810360008301526139e3816139a7565b9050919050565b7f4f6e6c7920746865206f776e65722063616e20736574206120637573746f6d2060008201527f74696d656f757400000000000000000000000000000000000000000000000000602082015250565b6000613a46602783612e3e565b9150613a51826139ea565b604082019050919050565b60006020820190508181036000830152613a7581613a39565b9050919050565b6000613a8782612ee5565b9150613a9283612ee5565b9250828201905080821115613aaa57613aa961378c565b5b92915050565b7f4e487b7100000000000000000000000000000000000000000000000000000000600052603260045260246000fd5b600081905092915050565b6000613af582612e33565b613aff8185613adf565b9350613b0f818560208601612e4f565b80840191505092915050565b6000613b278285613aea565b9150613b338284613aea565b91508190509392505050565b7f4f6e6c7920746865206f776e65722063616e2073657420616363657373000000600082015250565b6000613b75601d83612e3e565b9150613b8082613b3f565b602082019050919050565b60006020820190508181036000830152613ba481613b68565b9050919050565b7f4d75737420686f6c64206174206c656173742031204e465420746f207669657760008201527f206f7468657273206c696e6b7300000000000000000000000000000000000000602082015250565b6000613c07602d83612e3e565b9150613c1282613bab565b604082019050919050565b60006020820190508181036000830152613c3681613bfa565b9050919050565b7f4f6e6c7920746865206f776e65722063616e207669657720746865206c696e6b60008201527f7300000000000000000000000000000000000000000000000000000000000000602082015250565b6000613c99602183612e3e565b9150613ca482613c3d565b604082019050919050565b60006020820190508181036000830152613cc881613c8c565b9050919050565b7f596f7520617265206e6f742077686974656c697374656420746f20766965772060008201527f746865206c696e6b730000000000000000000000000000000000000000000000602082015250565b6000613d2b602983612e3e565b9150613d3682613ccf565b604082019050919050565b60006020820190508181036000830152613d5a81613d1e565b9050919050565b7f4f6e6c7920746865206f776e65722063616e20636865636b2d696e0000000000600082015250565b6000613d97601b83612e3e565b9150613da282613d61565b602082019050919050565b60006020820190508181036000830152613dc681613d8a565b9050919050565b7f4f6e6c7920746865206f776e65722063616e20616464206c696e6b7300000000600082015250565b6000613e03601c83612e3e565b9150613e0e82613dcd565b602082019050919050565b60006020820190508181036000830152613e3281613df6565b9050919050565b60008190508160005260206000209050919050565b60006020601f8301049050919050565b600082821b905092915050565b600060088302613e9b7fffffffffffffffffffffffffffffffffffffffffffffffffffffffffffffffff82613e5e565b613ea58683613e5e565b95508019841693508086168417925050509392505050565b6000819050919050565b6000613ee2613edd613ed884612ee5565b613ebd565b612ee5565b9050919050565b6000819050919050565b613efc83613ec7565b613f10613f0882613ee9565b848454613e6b565b825550505050565b600090565b613f25613f18565b613f30818484613ef3565b505050565b5b81811015613f5457613f49600082613f1d565b600181019050613f36565b5050565b601f821115613f9957613f6a81613e39565b613f7384613e4e565b81016020851015613f82578190505b613f96613f8e85613e4e565b830182613f35565b50505b505050565b600082821c905092915050565b6000613fbc60001984600802613f9e565b1980831691505092915050565b6000613fd58383613fab565b9150826002028217905092915050565b613fee82612e33565b67ffffffffffffffff81111561400757614006613370565b5b61401182546136ef565b61401c828285613f58565b600060209050601f83116001811461404f576000841561403d578287015190505b6140478582613fc9565b8655506140af565b601f19841661405d86613e39565b60005b8281101561408557848901518255600182019150602085019450602081019050614060565b868310156140a2578489015161409e601f891682613fab565b8355505b6001600288020188555050505b505050505050565b600081519050919050565b600082825260208201905092915050565b60006140de826140b7565b6140e881856140c2565b93506140f8818560208601612e4f565b61410181612e79565b840191505092915050565b60006080820190506141216000830187612f7a565b61412e6020830186612f7a565b61413b6040830185613010565b818103606083015261414d81846140d3565b905095945050505050565b60008151905061416781612da4565b92915050565b60006020828403121561418357614182612d6e565b5b600061419184828501614158565b91505092915050565b7f4e487b7100000000000000000000000000000000000000000000000000000000600052601260045260246000fd5b60006040820190506141de6000830185612f7a565b6141eb6020830184613010565b939250505056fea26469706673582212203747ade715516a986fc367b6134fe305aa16761eb288cc96922d23006b53b2ba64736f6c63430008140033",
  "linkReferences": {},
  "deployedLinkReferences": {}
}