{
  "_format": "hh-sol-artifact-1",
  "contractName": "DeadmanSwitch",
  "sourceName": "contracts/DeadmanSwitch.sol",
  "abi": [
    {
      "inputs": [],
      "stateMutability": "nonpayable",
      "type": "constructor"
    },
    {
      "inputs": [
        {
          "internalType": "address",
          "name": "sender",
          "type": "address"
        },
        {
          "internalType": "uint256",
          "name": "tokenId",
          "type": "uint256"
        },
        {
          "internalType": "address",
          "name": "owner",
          "type": "address"
        }
      ],
      "name": "ERC721IncorrectOwner",
      "type": "error"
    },
    {
      "inputs": [
        {
          "internalType": "address",
          "name": "operator",
          "type": "address"
        },
        {
          "internalType": "uint256",
          "name": "tokenId",
          "type": "uint256"
        }
      ],
      "name": "ERC721InsufficientApproval",
      "type": "error"
    },
    {
      "inputs": [
        {
          "internalType": "address",
          "name": "approver",
          "type": "address"
        }
      ],
      "name": "ERC721InvalidApprover",
      "type": "error"
    },
    {
      "inputs": [
        {
          "internalType": "address",
          "name": "operator",
          "type": "address"
        }
      ],
      "name": "ERC721InvalidOperator",
      "type": "error"
    },
    {
      "inputs": [
        {
          "internalType": "address",
          "name": "owner",
          "type": "address"
        }
      ],
      "name": "ERC721InvalidOwner",
      "type": "error"
    },
    {
      "inputs": [
        {
          "internalType": "address",
          "name": "receiver",
          "type": "address"
        }
      ],
      "name": "ERC721InvalidReceiver",
      "type": "error"
    },
    {
      "inputs": [
        {
          "internalType": "address",
          "name": "sender",
          "type": "address"
        }
      ],
      "name": "ERC721InvalidSender",
      "type": "error"
    },
    {
      "inputs": [
        {
          "internalType": "uint256",
          "name": "tokenId",
          "type": "uint256"
        }
      ],
      "name": "ERC721NonexistentToken",
      "type": "error"
    },
    {
      "inputs": [
        {
          "internalType": "address",
          "name": "owner",
          "type": "address"
        }
      ],
      "name": "OwnableInvalidOwner",
      "type": "error"
    },
    {
      "inputs": [
        {
          "internalType": "address",
          "name": "account",
          "type": "address"
        }
      ],
      "name": "OwnableUnauthorizedAccount",
      "type": "error"
    },
    {
      "anonymous": false,
      "inputs": [
        {
          "indexed": true,
          "internalType": "address",
          "name": "owner",
          "type": "address"
        },
        {
          "indexed": true,
          "internalType": "address",
          "name": "approved",
          "type": "address"
        },
        {
          "indexed": true,
          "internalType": "uint256",
          "name": "tokenId",
          "type": "uint256"
        }
      ],
      "name": "Approval",
      "type": "event"
    },
    {
      "anonymous": false,
      "inputs": [
        {
          "indexed": true,
          "internalType": "address",
          "name": "owner",
          "type": "address"
        },
        {
          "indexed": true,
          "internalType": "address",
          "name": "operator",
          "type": "address"
        },
        {
          "indexed": false,
          "internalType": "bool",
          "name": "approved",
          "type": "bool"
        }
      ],
      "name": "ApprovalForAll",
      "type": "event"
    },
    {
      "anonymous": false,
      "inputs": [
        {
          "indexed": false,
          "internalType": "uint256",
          "name": "_fromTokenId",
          "type": "uint256"
        },
        {
          "indexed": false,
          "internalType": "uint256",
          "name": "_toTokenId",
          "type": "uint256"
        }
      ],
      "name": "BatchMetadataUpdate",
      "type": "event"
    },
    {
      "anonymous": false,
      "inputs": [
        {
          "indexed": false,
          "internalType": "uint256",
          "name": "_tokenId",
          "type": "uint256"
        }
      ],
      "name": "MetadataUpdate",
      "type": "event"
    },
    {
      "anonymous": false,
      "inputs": [
        {
          "indexed": true,
          "internalType": "address",
          "name": "previousOwner",
          "type": "address"
        },
        {
          "indexed": true,
          "internalType": "address",
          "name": "newOwner",
          "type": "address"
        }
      ],
      "name": "OwnershipTransferred",
      "type": "event"
    },
    {
      "anonymous": false,
      "inputs": [
        {
          "indexed": true,
          "internalType": "address",
          "name": "from",
          "type": "address"
        },
        {
          "indexed": true,
          "internalType": "address",
          "name": "to",
          "type": "address"
        },
        {
          "indexed": true,
          "internalType": "uint256",
          "name": "tokenId",
          "type": "uint256"
        }
      ],
      "name": "Transfer",
      "type": "event"
    },
    {
      "inputs": [],
      "name": "DEFAULT_TIMEOUT",
      "outputs": [
        {
          "internalType": "uint256",
          "name": "",
          "type": "uint256"
        }
      ],
      "stateMutability": "view",
      "type": "function"
    },
    {
      "inputs": [
        {
          "internalType": "uint256",
          "name": "tokenId",
          "type": "uint256"
        },
        {
          "internalType": "address",
          "name": "user",
          "type": "address"
        }
      ],
      "name": "addToWhitelist",
      "outputs": [],
      "stateMutability": "nonpayable",
      "type": "function"
    },
    {
      "inputs": [
        {
          "internalType": "address",
          "name": "to",
          "type": "address"
        },
        {
          "internalType": "uint256",
          "name": "tokenId",
          "type": "uint256"
        }
      ],
      "name": "approve",
      "outputs": [],
      "stateMutability": "nonpayable",
      "type": "function"
    },
    {
      "inputs": [
        {
          "internalType": "address",
          "name": "owner",
          "type": "address"
        }
      ],
      "name": "balanceOf",
      "outputs": [
        {
          "internalType": "uint256",
          "name": "",
          "type": "uint256"
        }
      ],
      "stateMutability": "view",
      "type": "function"
    },
    {
      "inputs": [],
      "name": "baseURI",
      "outputs": [
        {
          "internalType": "string",
          "name": "",
          "type": "string"
        }
      ],
      "stateMutability": "view",
      "type": "function"
    },
    {
      "inputs": [
        {
          "internalType": "uint256",
          "name": "tokenId",
          "type": "uint256"
        }
      ],
      "name": "checkIn",
      "outputs": [],
      "stateMutability": "nonpayable",
      "type": "function"
    },
    {
      "inputs": [
        {
          "internalType": "uint256",
          "name": "tokenId",
          "type": "uint256"
        }
      ],
      "name": "getApproved",
      "outputs": [
        {
          "internalType": "address",
          "name": "",
          "type": "address"
        }
      ],
      "stateMutability": "view",
      "type": "function"
    },
    {
      "inputs": [
        {
          "internalType": "uint256",
          "name": "tokenId",
          "type": "uint256"
        }
      ],
      "name": "getLinksArray",
      "outputs": [
        {
          "internalType": "string[]",
          "name": "",
          "type": "string[]"
        }
      ],
      "stateMutability": "view",
      "type": "function"
    },
    {
      "inputs": [
        {
          "internalType": "uint256",
          "name": "tokenId",
          "type": "uint256"
        }
      ],
      "name": "getTimeout",
      "outputs": [
        {
          "internalType": "uint256",
          "name": "",
          "type": "uint256"
        }
      ],
      "stateMutability": "view",
      "type": "function"
    },
    {
      "inputs": [
        {
          "internalType": "address",
          "name": "owner",
          "type": "address"
        },
        {
          "internalType": "address",
          "name": "operator",
          "type": "address"
        }
      ],
      "name": "isApprovedForAll",
      "outputs": [
        {
          "internalType": "bool",
          "name": "",
          "type": "bool"
        }
      ],
      "stateMutability": "view",
      "type": "function"
    },
    {
      "inputs": [
        {
          "internalType": "uint256",
          "name": "_tokenId",
          "type": "uint256"
        }
      ],
      "name": "isPublic",
      "outputs": [
        {
          "internalType": "bool",
          "name": "",
          "type": "bool"
        }
      ],
      "stateMutability": "view",
      "type": "function"
    },
    {
      "inputs": [
        {
          "internalType": "uint256",
          "name": "tokenId",
          "type": "uint256"
        },
        {
          "internalType": "address",
          "name": "user",
          "type": "address"
        }
      ],
      "name": "isWhitelisted",
      "outputs": [
        {
          "internalType": "bool",
          "name": "",
          "type": "bool"
        }
      ],
      "stateMutability": "view",
      "type": "function"
    },
    {
      "inputs": [
        {
          "internalType": "uint256",
          "name": "",
          "type": "uint256"
        }
      ],
      "name": "lastCheckedIn",
      "outputs": [
        {
          "internalType": "uint256",
          "name": "",
          "type": "uint256"
        }
      ],
      "stateMutability": "view",
      "type": "function"
    },
    {
      "inputs": [],
      "name": "mint",
      "outputs": [],
      "stateMutability": "payable",
      "type": "function"
    },
    {
      "inputs": [],
      "name": "mintFee",
      "outputs": [
        {
          "internalType": "uint256",
          "name": "",
          "type": "uint256"
        }
      ],
      "stateMutability": "view",
      "type": "function"
    },
    {
      "inputs": [],
      "name": "name",
      "outputs": [
        {
          "internalType": "string",
          "name": "",
          "type": "string"
        }
      ],
      "stateMutability": "view",
      "type": "function"
    },
    {
      "inputs": [
        {
          "internalType": "uint256",
          "name": "",
          "type": "uint256"
        }
      ],
      "name": "nftInfos",
      "outputs": [
        {
          "internalType": "enum DeadmanSwitch.AccessLevel",
          "name": "access",
          "type": "uint8"
        }
      ],
      "stateMutability": "view",
      "type": "function"
    },
    {
      "inputs": [],
      "name": "owner",
      "outputs": [
        {
          "internalType": "address",
          "name": "",
          "type": "address"
        }
      ],
      "stateMutability": "view",
      "type": "function"
    },
    {
      "inputs": [
        {
          "internalType": "uint256",
          "name": "tokenId",
          "type": "uint256"
        }
      ],
      "name": "ownerOf",
      "outputs": [
        {
          "internalType": "address",
          "name": "",
          "type": "address"
        }
      ],
      "stateMutability": "view",
      "type": "function"
    },
    {
      "inputs": [
        {
          "internalType": "uint256",
          "name": "tokenId",
          "type": "uint256"
        },
        {
          "internalType": "string",
          "name": "link",
          "type": "string"
        }
      ],
      "name": "pushLink",
      "outputs": [],
      "stateMutability": "nonpayable",
      "type": "function"
    },
    {
      "inputs": [],
      "name": "renounceOwnership",
      "outputs": [],
      "stateMutability": "nonpayable",
      "type": "function"
    },
    {
      "inputs": [
        {
          "internalType": "address",
          "name": "from",
          "type": "address"
        },
        {
          "internalType": "address",
          "name": "to",
          "type": "address"
        },
        {
          "internalType": "uint256",
          "name": "tokenId",
          "type": "uint256"
        }
      ],
      "name": "safeTransferFrom",
      "outputs": [],
      "stateMutability": "nonpayable",
      "type": "function"
    },
    {
      "inputs": [
        {
          "internalType": "address",
          "name": "from",
          "type": "address"
        },
        {
          "internalType": "address",
          "name": "to",
          "type": "address"
        },
        {
          "internalType": "uint256",
          "name": "tokenId",
          "type": "uint256"
        },
        {
          "internalType": "bytes",
          "name": "data",
          "type": "bytes"
        }
      ],
      "name": "safeTransferFrom",
      "outputs": [],
      "stateMutability": "nonpayable",
      "type": "function"
    },
    {
      "inputs": [
        {
          "internalType": "uint256",
          "name": "tokenId",
          "type": "uint256"
        },
        {
          "internalType": "enum DeadmanSwitch.AccessLevel",
          "name": "access",
          "type": "uint8"
        }
      ],
      "name": "setAccess",
      "outputs": [],
      "stateMutability": "nonpayable",
      "type": "function"
    },
    {
      "inputs": [
        {
          "internalType": "address",
          "name": "operator",
          "type": "address"
        },
        {
          "internalType": "bool",
          "name": "approved",
          "type": "bool"
        }
      ],
      "name": "setApprovalForAll",
      "outputs": [],
      "stateMutability": "nonpayable",
      "type": "function"
    },
    {
      "inputs": [
        {
          "internalType": "uint256",
          "name": "tokenId",
          "type": "uint256"
        },
        {
          "internalType": "uint256",
          "name": "timeoutInSeconds",
          "type": "uint256"
        }
      ],
      "name": "setCustomTimeout",
      "outputs": [],
      "stateMutability": "nonpayable",
      "type": "function"
    },
    {
      "inputs": [
        {
          "internalType": "uint256",
          "name": "tokenId",
          "type": "uint256"
        },
        {
          "internalType": "string",
          "name": "_tokenURI",
          "type": "string"
        }
      ],
      "name": "setTokenURI",
      "outputs": [],
      "stateMutability": "nonpayable",
      "type": "function"
    },
    {
      "inputs": [
        {
          "internalType": "bytes4",
          "name": "interfaceId",
          "type": "bytes4"
        }
      ],
      "name": "supportsInterface",
      "outputs": [
        {
          "internalType": "bool",
          "name": "",
          "type": "bool"
        }
      ],
      "stateMutability": "view",
      "type": "function"
    },
    {
      "inputs": [],
      "name": "symbol",
      "outputs": [
        {
          "internalType": "string",
          "name": "",
          "type": "string"
        }
      ],
      "stateMutability": "view",
      "type": "function"
    },
    {
      "inputs": [],
      "name": "tokenCounter",
      "outputs": [
        {
          "internalType": "uint256",
          "name": "",
          "type": "uint256"
        }
      ],
      "stateMutability": "view",
      "type": "function"
    },
    {
      "inputs": [
        {
          "internalType": "uint256",
          "name": "",
          "type": "uint256"
        }
      ],
      "name": "tokenTimeout",
      "outputs": [
        {
          "internalType": "uint256",
          "name": "",
          "type": "uint256"
        }
      ],
      "stateMutability": "view",
      "type": "function"
    },
    {
      "inputs": [
        {
          "internalType": "uint256",
          "name": "tokenId",
          "type": "uint256"
        }
      ],
      "name": "tokenURI",
      "outputs": [
        {
          "internalType": "string",
          "name": "",
          "type": "string"
        }
      ],
      "stateMutability": "view",
      "type": "function"
    },
    {
      "inputs": [
        {
          "internalType": "address",
          "name": "from",
          "type": "address"
        },
        {
          "internalType": "address",
          "name": "to",
          "type": "address"
        },
        {
          "internalType": "uint256",
          "name": "tokenId",
          "type": "uint256"
        }
      ],
      "name": "transferFrom",
      "outputs": [],
      "stateMutability": "nonpayable",
      "type": "function"
    },
    {
      "inputs": [
        {
          "internalType": "address",
          "name": "newOwner",
          "type": "address"
        }
      ],
      "name": "transferOwnership",
      "outputs": [],
      "stateMutability": "nonpayable",
      "type": "function"
    },
    {
      "inputs": [
        {
          "internalType": "uint256",
          "name": "tokenId",
          "type": "uint256"
        }
      ],
      "name": "viewLinks",
      "outputs": [
        {
          "internalType": "string[]",
          "name": "",
          "type": "string[]"
        }
      ],
      "stateMutability": "view",
      "type": "function"
    },
    {
      "inputs": [],
      "name": "withdraw",
      "outputs": [],
      "stateMutability": "nonpayable",
      "type": "function"
    }
  ],
  "bytecode": "0x608060405260016008556040518060200160405280600081525060099081620000299190620004a5565b506801158e460913d00000600a553480156200004457600080fd5b50336040518060400160405280600d81526020017f446561646d616e537769746368000000000000000000000000000000000000008152506040518060400160405280600381526020017f444d5300000000000000000000000000000000000000000000000000000000008152508160009081620000c39190620004a5565b508060019081620000d59190620004a5565b505050600073ffffffffffffffffffffffffffffffffffffffff168173ffffffffffffffffffffffffffffffffffffffff16036200014d5760006040517f1e4fbdf7000000000000000000000000000000000000000000000000000000008152600401620001449190620005d1565b60405180910390fd5b6200015e816200016560201b60201c565b50620005ee565b6000600760009054906101000a900473ffffffffffffffffffffffffffffffffffffffff16905081600760006101000a81548173ffffffffffffffffffffffffffffffffffffffff021916908373ffffffffffffffffffffffffffffffffffffffff1602179055508173ffffffffffffffffffffffffffffffffffffffff168173ffffffffffffffffffffffffffffffffffffffff167f8be0079c531659141344cd1fd0a4f28419497f9722a3daafe3b4186f6b6457e060405160405180910390a35050565b600081519050919050565b7f4e487b7100000000000000000000000000000000000000000000000000000000600052604160045260246000fd5b7f4e487b7100000000000000000000000000000000000000000000000000000000600052602260045260246000fd5b60006002820490506001821680620002ad57607f821691505b602082108103620002c357620002c262000265565b5b50919050565b60008190508160005260206000209050919050565b60006020601f8301049050919050565b600082821b905092915050565b6000600883026200032d7fffffffffffffffffffffffffffffffffffffffffffffffffffffffffffffffff82620002ee565b620003398683620002ee565b95508019841693508086168417925050509392505050565b6000819050919050565b6000819050919050565b600062000386620003806200037a8462000351565b6200035b565b62000351565b9050919050565b6000819050919050565b620003a28362000365565b620003ba620003b1826200038d565b848454620002fb565b825550505050565b600090565b620003d1620003c2565b620003de81848462000397565b505050565b5b818110156200040657620003fa600082620003c7565b600181019050620003e4565b5050565b601f82111562000455576200041f81620002c9565b6200042a84620002de565b810160208510156200043a578190505b620004526200044985620002de565b830182620003e3565b50505b505050565b600082821c905092915050565b60006200047a600019846008026200045a565b1980831691505092915050565b600062000495838362000467565b9150826002028217905092915050565b620004b0826200022b565b67ffffffffffffffff811115620004cc57620004cb62000236565b5b620004d8825462000294565b620004e58282856200040a565b600060209050601f8311600181146200051d576000841562000508578287015190505b62000514858262000487565b86555062000584565b601f1984166200052d86620002c9565b60005b82811015620005575784890151825560018201915060208501945060208101905062000530565b8683101562000577578489015162000573601f89168262000467565b8355505b6001600288020188555050505b505050505050565b600073ffffffffffffffffffffffffffffffffffffffff82169050919050565b6000620005b9826200058c565b9050919050565b620005cb81620005ac565b82525050565b6000602082019050620005e86000830184620005c0565b92915050565b61464b80620005fe6000396000f3fe60806040526004361061020f5760003560e01c8063715018a611610118578063c405f5b8116100a0578063db7b96101161006f578063db7b9610146107c6578063e95a644f14610803578063e985e9c51461082c578063ed2b785f14610869578063f2fde38b146108925761020f565b8063c405f5b8146106f8578063c87b56dd14610735578063d082e38114610772578063db7569e31461079d5761020f565b80638da5cb5b116100e75780638da5cb5b1461062557806395d89b41146106505780639add92e41461067b578063a22cb465146106a6578063b88d4fde146106cf5761020f565b8063715018a6146105575780637d22c35c1461056e5780638389f5d5146105ab5780638889cba2146105e85761020f565b80633c1734241161019b578063563a85021161016a578063563a85021461044c5780635b2dfeb8146104755780636352211e146104b25780636c0360eb146104ef57806370a082311461051a5761020f565b80633c173424146103925780633ccfd60b146103cf57806342842e0e146103e65780634bc834eb1461040f5761020f565b80631249c58b116101e25780631249c58b146102e257806313966db5146102ec578063162094c41461031757806323b872dd146103405780632d785461146103695761020f565b806301ffc9a71461021457806306fdde0314610251578063081812fc1461027c578063095ea7b3146102b9575b600080fd5b34801561022057600080fd5b5061023b60048036038101906102369190613161565b6108bb565b60405161024891906131a9565b60405180910390f35b34801561025d57600080fd5b5061026661091c565b6040516102739190613254565b60405180910390f35b34801561028857600080fd5b506102a3600480360381019061029e91906132ac565b6109ae565b6040516102b0919061331a565b60405180910390f35b3480156102c557600080fd5b506102e060048036038101906102db9190613361565b6109ca565b005b6102ea6109e0565b005b3480156102f857600080fd5b50610301610b13565b60405161030e91906133b0565b60405180910390f35b34801561032357600080fd5b5061033e60048036038101906103399190613500565b610b19565b005b34801561034c57600080fd5b506103676004803603810190610362919061355c565b610be2565b005b34801561037557600080fd5b50610390600480360381019061038b91906135af565b610ce4565b005b34801561039e57600080fd5b506103b960048036038101906103b491906132ac565b610e1a565b6040516103c691906133b0565b60405180910390f35b3480156103db57600080fd5b506103e4610e32565b005b3480156103f257600080fd5b5061040d6004803603810190610408919061355c565b610eef565b005b34801561041b57600080fd5b50610436600480360381019061043191906132ac565b610f0f565b6040516104439190613666565b60405180910390f35b34801561045857600080fd5b50610473600480360381019061046e9190613681565b610f3a565b005b34801561048157600080fd5b5061049c600480360381019061049791906132ac565b610fcc565b6040516104a991906131a9565b60405180910390f35b3480156104be57600080fd5b506104d960048036038101906104d491906132ac565b61106e565b6040516104e6919061331a565b60405180910390f35b3480156104fb57600080fd5b50610504611080565b6040516105119190613254565b60405180910390f35b34801561052657600080fd5b50610541600480360381019061053c91906136c1565b61110e565b60405161054e91906133b0565b60405180910390f35b34801561056357600080fd5b5061056c6111c8565b005b34801561057a57600080fd5b50610595600480360381019061059091906135af565b6111dc565b6040516105a291906131a9565b60405180910390f35b3480156105b757600080fd5b506105d260048036038101906105cd91906132ac565b611300565b6040516105df91906137fa565b60405180910390f35b3480156105f457600080fd5b5061060f600480360381019061060a91906132ac565b61143a565b60405161061c91906133b0565b60405180910390f35b34801561063157600080fd5b5061063a61147d565b604051610647919061331a565b60405180910390f35b34801561065c57600080fd5b506106656114a7565b6040516106729190613254565b60405180910390f35b34801561068757600080fd5b50610690611539565b60405161069d91906133b0565b60405180910390f35b3480156106b257600080fd5b506106cd60048036038101906106c89190613848565b611540565b005b3480156106db57600080fd5b506106f660048036038101906106f19190613929565b611556565b005b34801561070457600080fd5b5061071f600480360381019061071a91906132ac565b611573565b60405161072c91906133b0565b60405180910390f35b34801561074157600080fd5b5061075c600480360381019061075791906132ac565b61158b565b6040516107699190613254565b60405180910390f35b34801561077e57600080fd5b5061078761169e565b60405161079491906133b0565b60405180910390f35b3480156107a957600080fd5b506107c460048036038101906107bf91906139d1565b6116a4565b005b3480156107d257600080fd5b506107ed60048036038101906107e891906132ac565b6117a1565b6040516107fa91906137fa565b60405180910390f35b34801561080f57600080fd5b5061082a600480360381019061082591906132ac565b611d2d565b005b34801561083857600080fd5b50610853600480360381019061084e9190613a11565b611dbe565b60405161086091906131a9565b60405180910390f35b34801561087557600080fd5b50610890600480360381019061088b9190613500565b611e52565b005b34801561089e57600080fd5b506108b960048036038101906108b491906136c1565b611f60565b005b6000634906490660e01b7bffffffffffffffffffffffffffffffffffffffffffffffffffffffff1916827bffffffffffffffffffffffffffffffffffffffffffffffffffffffff19161480610915575061091482611fe6565b5b9050919050565b60606000805461092b90613a80565b80601f016020809104026020016040519081016040528092919081815260200182805461095790613a80565b80156109a45780601f10610979576101008083540402835291602001916109a4565b820191906000526020600020905b81548152906001019060200180831161098757829003601f168201915b5050505050905090565b60006109b9826120c8565b506109c382612150565b9050919050565b6109dc82826109d761218d565b612195565b5050565b600a54341015610a25576040517f08c379a0000000000000000000000000000000000000000000000000000000008152600401610a1c90613afd565b60405180910390fd5b610a31336008546121a7565b6000600b60006008548152602001908152602001600020905060008160010160006101000a81548160ff02191690836002811115610a7257610a716135ef565b5b0217905550600067ffffffffffffffff811115610a9257610a916133d5565b5b604051908082528060200260200182016040528015610ac557816020015b6060815260200190600190039081610ab05790505b50816000019080519060200190610add92919061301b565b5042600c600060085481526020019081526020016000208190555060086000815480929190610b0b90613b4c565b919050555050565b600a5481565b600854821115610b5e576040517f08c379a0000000000000000000000000000000000000000000000000000000008152600401610b5590613be0565b60405180910390fd5b610b678261106e565b73ffffffffffffffffffffffffffffffffffffffff163373ffffffffffffffffffffffffffffffffffffffff1614610bd4576040517f08c379a0000000000000000000000000000000000000000000000000000000008152600401610bcb90613c72565b60405180910390fd5b610bde82826122a0565b5050565b600073ffffffffffffffffffffffffffffffffffffffff168273ffffffffffffffffffffffffffffffffffffffff1603610c545760006040517f64a0ae92000000000000000000000000000000000000000000000000000000008152600401610c4b919061331a565b60405180910390fd5b6000610c688383610c6361218d565b6122fc565b90508373ffffffffffffffffffffffffffffffffffffffff168173ffffffffffffffffffffffffffffffffffffffff1614610cde578382826040517f64283d7b000000000000000000000000000000000000000000000000000000008152600401610cd593929190613c92565b60405180910390fd5b50505050565b600854821115610d29576040517f08c379a0000000000000000000000000000000000000000000000000000000008152600401610d2090613be0565b60405180910390fd5b610d328261106e565b73ffffffffffffffffffffffffffffffffffffffff163373ffffffffffffffffffffffffffffffffffffffff1614610d9f576040517f08c379a0000000000000000000000000000000000000000000000000000000008152600401610d9690613d3b565b60405180910390fd5b600b6000838152602001908152602001600020600201819080600181540180825580915050600190039060005260206000200160009091909190916101000a81548173ffffffffffffffffffffffffffffffffffffffff021916908373ffffffffffffffffffffffffffffffffffffffff1602179055505050565b600d6020528060005260406000206000915090505481565b610e3a612516565b600047905060003373ffffffffffffffffffffffffffffffffffffffff1682604051610e6590613d8c565b60006040518083038185875af1925050503d8060008114610ea2576040519150601f19603f3d011682016040523d82523d6000602084013e610ea7565b606091505b5050905080610eeb576040517f08c379a0000000000000000000000000000000000000000000000000000000008152600401610ee290613ded565b60405180910390fd5b5050565b610f0a83838360405180602001604052806000815250611556565b505050565b600b6020528060005260406000206000915090508060010160009054906101000a900460ff16905081565b3373ffffffffffffffffffffffffffffffffffffffff16610f5a8361106e565b73ffffffffffffffffffffffffffffffffffffffff1614610fb0576040517f08c379a0000000000000000000000000000000000000000000000000000000008152600401610fa790613e7f565b60405180910390fd5b80600d6000848152602001908152602001600020819055505050565b600080610fd88361143a565b90504281600c600086815260200190815260200160002054610ffa9190613e9f565b101561100a576001915050611069565b6001600281111561101e5761101d6135ef565b5b600b600085815260200190815260200160002060010160009054906101000a900460ff166002811115611054576110536135ef565b5b03611063576001915050611069565b60009150505b919050565b6000611079826120c8565b9050919050565b6009805461108d90613a80565b80601f01602080910402602001604051908101604052809291908181526020018280546110b990613a80565b80156111065780601f106110db57610100808354040283529160200191611106565b820191906000526020600020905b8154815290600101906020018083116110e957829003601f168201915b505050505081565b60008073ffffffffffffffffffffffffffffffffffffffff168273ffffffffffffffffffffffffffffffffffffffff16036111815760006040517f89c62b64000000000000000000000000000000000000000000000000000000008152600401611178919061331a565b60405180910390fd5b600360008373ffffffffffffffffffffffffffffffffffffffff1673ffffffffffffffffffffffffffffffffffffffff168152602001908152602001600020549050919050565b6111d0612516565b6111da600061259d565b565b600080600b600085815260200190815260200160002060020180548060200260200160405190810160405280929190818152602001828054801561127557602002820191906000526020600020905b8160009054906101000a900473ffffffffffffffffffffffffffffffffffffffff1673ffffffffffffffffffffffffffffffffffffffff168152602001906001019080831161122b575b5050505050905060005b81518110156112f3578373ffffffffffffffffffffffffffffffffffffffff168282815181106112b2576112b1613ed3565b5b602002602001015173ffffffffffffffffffffffffffffffffffffffff16036112e0576001925050506112fa565b80806112eb90613b4c565b91505061127f565b5060009150505b92915050565b6060600854821115611347576040517f08c379a000000000000000000000000000000000000000000000000000000000815260040161133e90613be0565b60405180910390fd5b6000600b6000848152602001908152602001600020905080600001805480602002602001604051908101604052809291908181526020016000905b8282101561142e5783829060005260206000200180546113a190613a80565b80601f01602080910402602001604051908101604052809291908181526020018280546113cd90613a80565b801561141a5780601f106113ef5761010080835404028352916020019161141a565b820191906000526020600020905b8154815290600101906020018083116113fd57829003601f168201915b505050505081526020019060010190611382565b50505050915050919050565b600080600d600084815260200190815260200160002054036114615762278d009050611478565b600d60008381526020019081526020016000205490505b919050565b6000600760009054906101000a900473ffffffffffffffffffffffffffffffffffffffff16905090565b6060600180546114b690613a80565b80601f01602080910402602001604051908101604052809291908181526020018280546114e290613a80565b801561152f5780601f106115045761010080835404028352916020019161152f565b820191906000526020600020905b81548152906001019060200180831161151257829003601f168201915b5050505050905090565b62278d0081565b61155261154b61218d565b8383612663565b5050565b611561848484610be2565b61156d848484846127d2565b50505050565b600c6020528060005260406000206000915090505481565b6060611596826120c8565b5060006006600084815260200190815260200160002080546115b790613a80565b80601f01602080910402602001604051908101604052809291908181526020018280546115e390613a80565b80156116305780601f1061160557610100808354040283529160200191611630565b820191906000526020600020905b81548152906001019060200180831161161357829003601f168201915b505050505090506000611641612989565b90506000815103611656578192505050611699565b60008251111561168b578082604051602001611673929190613f3e565b60405160208183030381529060405292505050611699565b611694846129a0565b925050505b919050565b60085481565b6008548211156116e9576040517f08c379a00000000000000000000000000000000000000000000000000000000081526004016116e090613be0565b60405180910390fd5b6116f28261106e565b73ffffffffffffffffffffffffffffffffffffffff163373ffffffffffffffffffffffffffffffffffffffff161461175f576040517f08c379a000000000000000000000000000000000000000000000000000000000815260040161175690613fae565b60405180910390fd5b80600b600084815260200190815260200160002060010160006101000a81548160ff02191690836002811115611798576117976135ef565b5b02179055505050565b60606008548211156117e8576040517f08c379a00000000000000000000000000000000000000000000000000000000081526004016117df90613be0565b60405180910390fd5b60006117f33361110e565b11611833576040517f08c379a000000000000000000000000000000000000000000000000000000000815260040161182a90614040565b60405180910390fd5b60016002811115611847576118466135ef565b5b600b600084815260200190815260200160002060010160009054906101000a900460ff16600281111561187d5761187c6135ef565b5b14806118ae575061188d8261143a565b600c6000848152602001908152602001600020546118ab9190613e9f565b42115b156119a057600b6000838152602001908152602001600020600001805480602002602001604051908101604052809291908181526020016000905b8282101561199557838290600052602060002001805461190890613a80565b80601f016020809104026020016040519081016040528092919081815260200182805461193490613a80565b80156119815780601f1061195657610100808354040283529160200191611981565b820191906000526020600020905b81548152906001019060200180831161196457829003601f168201915b5050505050815260200190600101906118e9565b505050509050611d28565b600060028111156119b4576119b36135ef565b5b600b600084815260200190815260200160002060010160009054906101000a900460ff1660028111156119ea576119e96135ef565b5b03611b52576119f88261106e565b73ffffffffffffffffffffffffffffffffffffffff163373ffffffffffffffffffffffffffffffffffffffff1614611a65576040517f08c379a0000000000000000000000000000000000000000000000000000000008152600401611a5c906140d2565b60405180910390fd5b600b6000838152602001908152602001600020600001805480602002602001604051908101604052809291908181526020016000905b82821015611b47578382906000526020600020018054611aba90613a80565b80601f0160208091040260200160405190810160405280929190818152602001828054611ae690613a80565b8015611b335780601f10611b0857610100808354040283529160200191611b33565b820191906000526020600020905b815481529060010190602001808311611b1657829003601f168201915b505050505081526020019060010190611a9b565b505050509050611d28565b600280811115611b6557611b646135ef565b5b600b600084815260200190815260200160002060010160009054906101000a900460ff166002811115611b9b57611b9a6135ef565b5b03611cd657611baa82336111dc565b611be9576040517f08c379a0000000000000000000000000000000000000000000000000000000008152600401611be090614164565b60405180910390fd5b600b6000838152602001908152602001600020600001805480602002602001604051908101604052809291908181526020016000905b82821015611ccb578382906000526020600020018054611c3e90613a80565b80601f0160208091040260200160405190810160405280929190818152602001828054611c6a90613a80565b8015611cb75780601f10611c8c57610100808354040283529160200191611cb7565b820191906000526020600020905b815481529060010190602001808311611c9a57829003601f168201915b505050505081526020019060010190611c1f565b505050509050611d28565b600067ffffffffffffffff811115611cf157611cf06133d5565b5b604051908082528060200260200182016040528015611d2457816020015b6060815260200190600190039081611d0f5790505b5090505b919050565b3373ffffffffffffffffffffffffffffffffffffffff16611d4d8261106e565b73ffffffffffffffffffffffffffffffffffffffff1614611da3576040517f08c379a0000000000000000000000000000000000000000000000000000000008152600401611d9a906141d0565b60405180910390fd5b42600c60008381526020019081526020016000208190555050565b6000600560008473ffffffffffffffffffffffffffffffffffffffff1673ffffffffffffffffffffffffffffffffffffffff16815260200190815260200160002060008373ffffffffffffffffffffffffffffffffffffffff1673ffffffffffffffffffffffffffffffffffffffff16815260200190815260200160002060009054906101000a900460ff16905092915050565b6000600b60008481526020019081526020016000209050600854831115611eae576040517f08c379a0000000000000000000000000000000000000000000000000000000008152600401611ea590613be0565b60405180910390fd5b611eb78361106e565b73ffffffffffffffffffffffffffffffffffffffff163373ffffffffffffffffffffffffffffffffffffffff1614611f24576040517f08c379a0000000000000000000000000000000000000000000000000000000008152600401611f1b9061423c565b60405180910390fd5b8060000182908060018154018082558091505060019003906000526020600020016000909190919091509081611f5a9190614408565b50505050565b611f68612516565b600073ffffffffffffffffffffffffffffffffffffffff168173ffffffffffffffffffffffffffffffffffffffff1603611fda5760006040517f1e4fbdf7000000000000000000000000000000000000000000000000000000008152600401611fd1919061331a565b60405180910390fd5b611fe38161259d565b50565b60007f80ac58cd000000000000000000000000000000000000000000000000000000007bffffffffffffffffffffffffffffffffffffffffffffffffffffffff1916827bffffffffffffffffffffffffffffffffffffffffffffffffffffffff191614806120b157507f5b5e139f000000000000000000000000000000000000000000000000000000007bffffffffffffffffffffffffffffffffffffffffffffffffffffffff1916827bffffffffffffffffffffffffffffffffffffffffffffffffffffffff1916145b806120c157506120c082612a09565b5b9050919050565b6000806120d483612a73565b9050600073ffffffffffffffffffffffffffffffffffffffff168173ffffffffffffffffffffffffffffffffffffffff160361214757826040517f7e27328900000000000000000000000000000000000000000000000000000000815260040161213e91906133b0565b60405180910390fd5b80915050919050565b60006004600083815260200190815260200160002060009054906101000a900473ffffffffffffffffffffffffffffffffffffffff169050919050565b600033905090565b6121a28383836001612ab0565b505050565b600073ffffffffffffffffffffffffffffffffffffffff168273ffffffffffffffffffffffffffffffffffffffff16036122195760006040517f64a0ae92000000000000000000000000000000000000000000000000000000008152600401612210919061331a565b60405180910390fd5b6000612227838360006122fc565b9050600073ffffffffffffffffffffffffffffffffffffffff168173ffffffffffffffffffffffffffffffffffffffff161461229b5760006040517f73c6ac6e000000000000000000000000000000000000000000000000000000008152600401612292919061331a565b60405180910390fd5b505050565b806006600084815260200190815260200160002090816122c09190614408565b507ff8e1a15aba9398e019f0b49df1a4fde98ee17ae345cb5f6b5e2c27f5033e8ce7826040516122f091906133b0565b60405180910390a15050565b60008061230884612a73565b9050600073ffffffffffffffffffffffffffffffffffffffff168373ffffffffffffffffffffffffffffffffffffffff161461234a57612349818486612c75565b5b600073ffffffffffffffffffffffffffffffffffffffff168173ffffffffffffffffffffffffffffffffffffffff16146123db5761238c600085600080612ab0565b6001600360008373ffffffffffffffffffffffffffffffffffffffff1673ffffffffffffffffffffffffffffffffffffffff168152602001908152602001600020600082825403925050819055505b600073ffffffffffffffffffffffffffffffffffffffff168573ffffffffffffffffffffffffffffffffffffffff161461245e576001600360008773ffffffffffffffffffffffffffffffffffffffff1673ffffffffffffffffffffffffffffffffffffffff168152602001908152602001600020600082825401925050819055505b846002600086815260200190815260200160002060006101000a81548173ffffffffffffffffffffffffffffffffffffffff021916908373ffffffffffffffffffffffffffffffffffffffff160217905550838573ffffffffffffffffffffffffffffffffffffffff168273ffffffffffffffffffffffffffffffffffffffff167fddf252ad1be2c89b69c2b068fc378daa952ba7f163c4a11628f55a4df523b3ef60405160405180910390a4809150509392505050565b61251e61218d565b73ffffffffffffffffffffffffffffffffffffffff1661253c61147d565b73ffffffffffffffffffffffffffffffffffffffff161461259b5761255f61218d565b6040517f118cdaa7000000000000000000000000000000000000000000000000000000008152600401612592919061331a565b60405180910390fd5b565b6000600760009054906101000a900473ffffffffffffffffffffffffffffffffffffffff16905081600760006101000a81548173ffffffffffffffffffffffffffffffffffffffff021916908373ffffffffffffffffffffffffffffffffffffffff1602179055508173ffffffffffffffffffffffffffffffffffffffff168173ffffffffffffffffffffffffffffffffffffffff167f8be0079c531659141344cd1fd0a4f28419497f9722a3daafe3b4186f6b6457e060405160405180910390a35050565b600073ffffffffffffffffffffffffffffffffffffffff168273ffffffffffffffffffffffffffffffffffffffff16036126d457816040517f5b08ba180000000000000000000000000000000000000000000000000000000081526004016126cb919061331a565b60405180910390fd5b80600560008573ffffffffffffffffffffffffffffffffffffffff1673ffffffffffffffffffffffffffffffffffffffff16815260200190815260200160002060008473ffffffffffffffffffffffffffffffffffffffff1673ffffffffffffffffffffffffffffffffffffffff16815260200190815260200160002060006101000a81548160ff0219169083151502179055508173ffffffffffffffffffffffffffffffffffffffff168373ffffffffffffffffffffffffffffffffffffffff167f17307eab39ab6107e8899845ad3d59bd9653f200f220920489ca2b5937696c31836040516127c591906131a9565b60405180910390a3505050565b60008373ffffffffffffffffffffffffffffffffffffffff163b1115612983578273ffffffffffffffffffffffffffffffffffffffff1663150b7a0261281661218d565b8685856040518563ffffffff1660e01b8152600401612838949392919061452f565b6020604051808303816000875af192505050801561287457506040513d601f19601f820116820180604052508101906128719190614590565b60015b6128f8573d80600081146128a4576040519150601f19603f3d011682016040523d82523d6000602084013e6128a9565b606091505b5060008151036128f057836040517f64a0ae920000000000000000000000000000000000000000000000000000000081526004016128e7919061331a565b60405180910390fd5b805181602001fd5b63150b7a0260e01b7bffffffffffffffffffffffffffffffffffffffffffffffffffffffff1916817bffffffffffffffffffffffffffffffffffffffffffffffffffffffff19161461298157836040517f64a0ae92000000000000000000000000000000000000000000000000000000008152600401612978919061331a565b60405180910390fd5b505b50505050565b606060405180602001604052806000815250905090565b60606129ab826120c8565b5060006129b6612989565b905060008151116129d65760405180602001604052806000815250612a01565b806129e084612d39565b6040516020016129f1929190613f3e565b6040516020818303038152906040525b915050919050565b60007f01ffc9a7000000000000000000000000000000000000000000000000000000007bffffffffffffffffffffffffffffffffffffffffffffffffffffffff1916827bffffffffffffffffffffffffffffffffffffffffffffffffffffffff1916149050919050565b60006002600083815260200190815260200160002060009054906101000a900473ffffffffffffffffffffffffffffffffffffffff169050919050565b8080612ae95750600073ffffffffffffffffffffffffffffffffffffffff168273ffffffffffffffffffffffffffffffffffffffff1614155b15612c1d576000612af9846120c8565b9050600073ffffffffffffffffffffffffffffffffffffffff168373ffffffffffffffffffffffffffffffffffffffff1614158015612b6457508273ffffffffffffffffffffffffffffffffffffffff168173ffffffffffffffffffffffffffffffffffffffff1614155b8015612b775750612b758184611dbe565b155b15612bb957826040517fa9fbf51f000000000000000000000000000000000000000000000000000000008152600401612bb0919061331a565b60405180910390fd5b8115612c1b57838573ffffffffffffffffffffffffffffffffffffffff168273ffffffffffffffffffffffffffffffffffffffff167f8c5be1e5ebec7d5bd14f71427d1e84f3dd0314c0f7b2291e5b200ac8c7c3b92560405160405180910390a45b505b836004600085815260200190815260200160002060006101000a81548173ffffffffffffffffffffffffffffffffffffffff021916908373ffffffffffffffffffffffffffffffffffffffff16021790555050505050565b612c80838383612e07565b612d3457600073ffffffffffffffffffffffffffffffffffffffff168373ffffffffffffffffffffffffffffffffffffffff1603612cf557806040517f7e273289000000000000000000000000000000000000000000000000000000008152600401612cec91906133b0565b60405180910390fd5b81816040517f177e802f000000000000000000000000000000000000000000000000000000008152600401612d2b9291906145bd565b60405180910390fd5b505050565b606060006001612d4884612ec8565b01905060008167ffffffffffffffff811115612d6757612d666133d5565b5b6040519080825280601f01601f191660200182016040528015612d995781602001600182028036833780820191505090505b509050600082602001820190505b600115612dfc578080600190039150507f3031323334353637383961626364656600000000000000000000000000000000600a86061a8153600a8581612df057612def6145e6565b5b04945060008503612da7575b819350505050919050565b60008073ffffffffffffffffffffffffffffffffffffffff168373ffffffffffffffffffffffffffffffffffffffff1614158015612ebf57508273ffffffffffffffffffffffffffffffffffffffff168473ffffffffffffffffffffffffffffffffffffffff161480612e805750612e7f8484611dbe565b5b80612ebe57508273ffffffffffffffffffffffffffffffffffffffff16612ea683612150565b73ffffffffffffffffffffffffffffffffffffffff16145b5b90509392505050565b600080600090507a184f03e93ff9f4daa797ed6e38ed64bf6a1f0100000000000000008310612f26577a184f03e93ff9f4daa797ed6e38ed64bf6a1f0100000000000000008381612f1c57612f1b6145e6565b5b0492506040810190505b6d04ee2d6d415b85acef81000000008310612f63576d04ee2d6d415b85acef81000000008381612f5957612f586145e6565b5b0492506020810190505b662386f26fc100008310612f9257662386f26fc100008381612f8857612f876145e6565b5b0492506010810190505b6305f5e1008310612fbb576305f5e1008381612fb157612fb06145e6565b5b0492506008810190505b6127108310612fe0576127108381612fd657612fd56145e6565b5b0492506004810190505b606483106130035760648381612ff957612ff86145e6565b5b0492506002810190505b600a8310613012576001810190505b80915050919050565b828054828255906000526020600020908101928215613063579160200282015b828111156130625782518290816130529190614408565b509160200191906001019061303b565b5b5090506130709190613074565b5090565b5b80821115613094576000818161308b9190613098565b50600101613075565b5090565b5080546130a490613a80565b6000825580601f106130b657506130d5565b601f0160209004906000526020600020908101906130d491906130d8565b5b50565b5b808211156130f15760008160009055506001016130d9565b5090565b6000604051905090565b600080fd5b600080fd5b60007fffffffff0000000000000000000000000000000000000000000000000000000082169050919050565b61313e81613109565b811461314957600080fd5b50565b60008135905061315b81613135565b92915050565b600060208284031215613177576131766130ff565b5b60006131858482850161314c565b91505092915050565b60008115159050919050565b6131a38161318e565b82525050565b60006020820190506131be600083018461319a565b92915050565b600081519050919050565b600082825260208201905092915050565b60005b838110156131fe5780820151818401526020810190506131e3565b60008484015250505050565b6000601f19601f8301169050919050565b6000613226826131c4565b61323081856131cf565b93506132408185602086016131e0565b6132498161320a565b840191505092915050565b6000602082019050818103600083015261326e818461321b565b905092915050565b6000819050919050565b61328981613276565b811461329457600080fd5b50565b6000813590506132a681613280565b92915050565b6000602082840312156132c2576132c16130ff565b5b60006132d084828501613297565b91505092915050565b600073ffffffffffffffffffffffffffffffffffffffff82169050919050565b6000613304826132d9565b9050919050565b613314816132f9565b82525050565b600060208201905061332f600083018461330b565b92915050565b61333e816132f9565b811461334957600080fd5b50565b60008135905061335b81613335565b92915050565b60008060408385031215613378576133776130ff565b5b60006133868582860161334c565b925050602061339785828601613297565b9150509250929050565b6133aa81613276565b82525050565b60006020820190506133c560008301846133a1565b92915050565b600080fd5b600080fd5b7f4e487b7100000000000000000000000000000000000000000000000000000000600052604160045260246000fd5b61340d8261320a565b810181811067ffffffffffffffff8211171561342c5761342b6133d5565b5b80604052505050565b600061343f6130f5565b905061344b8282613404565b919050565b600067ffffffffffffffff82111561346b5761346a6133d5565b5b6134748261320a565b9050602081019050919050565b82818337600083830152505050565b60006134a361349e84613450565b613435565b9050828152602081018484840111156134bf576134be6133d0565b5b6134ca848285613481565b509392505050565b600082601f8301126134e7576134e66133cb565b5b81356134f7848260208601613490565b91505092915050565b60008060408385031215613517576135166130ff565b5b600061352585828601613297565b925050602083013567ffffffffffffffff81111561354657613545613104565b5b613552858286016134d2565b9150509250929050565b600080600060608486031215613575576135746130ff565b5b60006135838682870161334c565b93505060206135948682870161334c565b92505060406135a586828701613297565b9150509250925092565b600080604083850312156135c6576135c56130ff565b5b60006135d485828601613297565b92505060206135e58582860161334c565b9150509250929050565b7f4e487b7100000000000000000000000000000000000000000000000000000000600052602160045260246000fd5b6003811061362f5761362e6135ef565b5b50565b60008190506136408261361e565b919050565b600061365082613632565b9050919050565b61366081613645565b82525050565b600060208201905061367b6000830184613657565b92915050565b60008060408385031215613698576136976130ff565b5b60006136a685828601613297565b92505060206136b785828601613297565b9150509250929050565b6000602082840312156136d7576136d66130ff565b5b60006136e58482850161334c565b91505092915050565b600081519050919050565b600082825260208201905092915050565b6000819050602082019050919050565b600082825260208201905092915050565b6000613736826131c4565b613740818561371a565b93506137508185602086016131e0565b6137598161320a565b840191505092915050565b6000613770838361372b565b905092915050565b6000602082019050919050565b6000613790826136ee565b61379a81856136f9565b9350836020820285016137ac8561370a565b8060005b858110156137e857848403895281516137c98582613764565b94506137d483613778565b925060208a019950506001810190506137b0565b50829750879550505050505092915050565b600060208201905081810360008301526138148184613785565b905092915050565b6138258161318e565b811461383057600080fd5b50565b6000813590506138428161381c565b92915050565b6000806040838503121561385f5761385e6130ff565b5b600061386d8582860161334c565b925050602061387e85828601613833565b9150509250929050565b600067ffffffffffffffff8211156138a3576138a26133d5565b5b6138ac8261320a565b9050602081019050919050565b60006138cc6138c784613888565b613435565b9050828152602081018484840111156138e8576138e76133d0565b5b6138f3848285613481565b509392505050565b600082601f8301126139105761390f6133cb565b5b81356139208482602086016138b9565b91505092915050565b60008060008060808587031215613943576139426130ff565b5b60006139518782880161334c565b94505060206139628782880161334c565b935050604061397387828801613297565b925050606085013567ffffffffffffffff81111561399457613993613104565b5b6139a0878288016138fb565b91505092959194509250565b600381106139b957600080fd5b50565b6000813590506139cb816139ac565b92915050565b600080604083850312156139e8576139e76130ff565b5b60006139f685828601613297565b9250506020613a07858286016139bc565b9150509250929050565b60008060408385031215613a2857613a276130ff565b5b6000613a368582860161334c565b9250506020613a478582860161334c565b9150509250929050565b7f4e487b7100000000000000000000000000000000000000000000000000000000600052602260045260246000fd5b60006002820490506001821680613a9857607f821691505b602082108103613aab57613aaa613a51565b5b50919050565b7f4e6f7420656e6f756768204d616e746c652070726f76696465642e0000000000600082015250565b6000613ae7601b836131cf565b9150613af282613ab1565b602082019050919050565b60006020820190508181036000830152613b1681613ada565b9050919050565b7f4e487b7100000000000000000000000000000000000000000000000000000000600052601160045260246000fd5b6000613b5782613276565b91507fffffffffffffffffffffffffffffffffffffffffffffffffffffffffffffffff8203613b8957613b88613b1d565b5b600182019050919050565b7f4e465420646f6573206e6f742065786973740000000000000000000000000000600082015250565b6000613bca6012836131cf565b9150613bd582613b94565b602082019050919050565b60006020820190508181036000830152613bf981613bbd565b9050919050565b7f4f6e6c7920746865206f776e65722063616e206368616e676520746f6b656e2060008201527f5552490000000000000000000000000000000000000000000000000000000000602082015250565b6000613c5c6023836131cf565b9150613c6782613c00565b604082019050919050565b60006020820190508181036000830152613c8b81613c4f565b9050919050565b6000606082019050613ca7600083018661330b565b613cb460208301856133a1565b613cc1604083018461330b565b949350505050565b7f4f6e6c7920746865206f776e65722063616e2061646420746f2074686520776860008201527f6974656c69737400000000000000000000000000000000000000000000000000602082015250565b6000613d256027836131cf565b9150613d3082613cc9565b604082019050919050565b60006020820190508181036000830152613d5481613d18565b9050919050565b600081905092915050565b50565b6000613d76600083613d5b565b9150613d8182613d66565b600082019050919050565b6000613d9782613d69565b9150819050919050565b7f5472616e73666572206661696c65640000000000000000000000000000000000600082015250565b6000613dd7600f836131cf565b9150613de282613da1565b602082019050919050565b60006020820190508181036000830152613e0681613dca565b9050919050565b7f4f6e6c7920746865206f776e65722063616e20736574206120637573746f6d2060008201527f74696d656f757400000000000000000000000000000000000000000000000000602082015250565b6000613e696027836131cf565b9150613e7482613e0d565b604082019050919050565b60006020820190508181036000830152613e9881613e5c565b9050919050565b6000613eaa82613276565b9150613eb583613276565b9250828201905080821115613ecd57613ecc613b1d565b5b92915050565b7f4e487b7100000000000000000000000000000000000000000000000000000000600052603260045260246000fd5b600081905092915050565b6000613f18826131c4565b613f228185613f02565b9350613f328185602086016131e0565b80840191505092915050565b6000613f4a8285613f0d565b9150613f568284613f0d565b91508190509392505050565b7f4f6e6c7920746865206f776e65722063616e2073657420616363657373000000600082015250565b6000613f98601d836131cf565b9150613fa382613f62565b602082019050919050565b60006020820190508181036000830152613fc781613f8b565b9050919050565b7f4d75737420686f6c64206174206c656173742031204e465420746f207669657760008201527f206f7468657273206c696e6b7300000000000000000000000000000000000000602082015250565b600061402a602d836131cf565b915061403582613fce565b604082019050919050565b600060208201905081810360008301526140598161401d565b9050919050565b7f4f6e6c7920746865206f776e65722063616e207669657720746865206c696e6b60008201527f7300000000000000000000000000000000000000000000000000000000000000602082015250565b60006140bc6021836131cf565b91506140c782614060565b604082019050919050565b600060208201905081810360008301526140eb816140af565b9050919050565b7f596f7520617265206e6f742077686974656c697374656420746f20766965772060008201527f746865206c696e6b730000000000000000000000000000000000000000000000602082015250565b600061414e6029836131cf565b9150614159826140f2565b604082019050919050565b6000602082019050818103600083015261417d81614141565b9050919050565b7f4f6e6c7920746865206f776e65722063616e20636865636b2d696e0000000000600082015250565b60006141ba601b836131cf565b91506141c582614184565b602082019050919050565b600060208201905081810360008301526141e9816141ad565b9050919050565b7f4f6e6c7920746865206f776e65722063616e20616464206c696e6b7300000000600082015250565b6000614226601c836131cf565b9150614231826141f0565b602082019050919050565b6000602082019050818103600083015261425581614219565b9050919050565b60008190508160005260206000209050919050565b60006020601f8301049050919050565b600082821b905092915050565b6000600883026142be7fffffffffffffffffffffffffffffffffffffffffffffffffffffffffffffffff82614281565b6142c88683614281565b95508019841693508086168417925050509392505050565b6000819050919050565b60006143056143006142fb84613276565b6142e0565b613276565b9050919050565b6000819050919050565b61431f836142ea565b61433361432b8261430c565b84845461428e565b825550505050565b600090565b61434861433b565b614353818484614316565b505050565b5b818110156143775761436c600082614340565b600181019050614359565b5050565b601f8211156143bc5761438d8161425c565b61439684614271565b810160208510156143a5578190505b6143b96143b185614271565b830182614358565b50505b505050565b600082821c905092915050565b60006143df600019846008026143c1565b1980831691505092915050565b60006143f883836143ce565b9150826002028217905092915050565b614411826131c4565b67ffffffffffffffff81111561442a576144296133d5565b5b6144348254613a80565b61443f82828561437b565b600060209050601f8311600181146144725760008415614460578287015190505b61446a85826143ec565b8655506144d2565b601f1984166144808661425c565b60005b828110156144a857848901518255600182019150602085019450602081019050614483565b868310156144c557848901516144c1601f8916826143ce565b8355505b6001600288020188555050505b505050505050565b600081519050919050565b600082825260208201905092915050565b6000614501826144da565b61450b81856144e5565b935061451b8185602086016131e0565b6145248161320a565b840191505092915050565b6000608082019050614544600083018761330b565b614551602083018661330b565b61455e60408301856133a1565b818103606083015261457081846144f6565b905095945050505050565b60008151905061458a81613135565b92915050565b6000602082840312156145a6576145a56130ff565b5b60006145b48482850161457b565b91505092915050565b60006040820190506145d2600083018561330b565b6145df60208301846133a1565b9392505050565b7f4e487b7100000000000000000000000000000000000000000000000000000000600052601260045260246000fdfea2646970667358221220d8218f7508b7de61efa435a85d5f307a04e17f5c75c0c344a5b1a9874d1cc6b764736f6c63430008140033",
  "linkReferences": {},
  "deployedLinkReferences": {}
}